:020000020000FC
:02000000FECE32
:10574E004DD7FF0CFF08CADDD6DDE6DD610324036D
:10575E00F6F522F65EF60A00650368DBE30200004A
:10576E0002800C09BF03FAFFC0E726DFA23E61FFED
:10577E005C01899199910895AAE4A2613EFF9A93E2
:10578E008A93C5010895982B8991999108950EFADF
:10579E00837061649A938A9302D0C8010895D101EF
:1057AE0050970D911D91ED91FD913896F058A59160
:1057BE00B5910A0F1B1F089540D8C15B7F770895DE
:1057CE00F8EFD22E22FF24D4E9D726F008951EF644
:1057DE00B37270409A938A938DB79EB7089544EC36
:1057EE00A463656C6CFF9A938A9382E090E00895AF
:1057FE002EF9A7616C69676E656401968E7F0895B8
:10580E001CD8A563656C6C2B029608952AD8A563E7
:10581E00656C6C73880F991F089536D8A5636861FF
:10582E00722B0196089558EAA56368617273089504
:10583E0074EDC15CF10136970191119101931193B1
:10584E006F7B0895A0DAA26569FF7894089594F2AB
:10585E00A26469FFF8940895E8E9A572736176650C
:10586E009A938A93C10102970895C2F1A5756C6946
:10587E006E6B9A938A93C1010C9708958EF1A4745E
:10588E0061736BFF9A938A93C1010E970895BCF8CA
:10589E00A26870FF9A938A93C1010895E4DBA46213
:1058AE00617365FF9A938A93C10142970895D0E27E
:1058BE00A4756D696EFF099119918017910708F013
:1058CE00C8010895BED8A4756D6178FF099119912C
:1058DE000817190708F0C80108954AEEA5737761F5
:1058EE00702D09911991801B910B08954EF9A361AA
:1058FE006E640991199180239123089570FAA26F15
:10590E0072FF09911991802B912B089564DAA37877
:10591E006F720991199180279127089516EEA66945
:10592E006E76657274FF80959095089546D9A23172
:10593E002BFF019608950AEFA2312DFF01970895CE
:10594E0056E4A2322BFF02960895A4EBA53E626F99
:10595E0064790496089550D9A2322AFF880F991FB0
:10596E00089534FBA375322F969587950895B4EE5E
:10597E00A2322FFF959587950895FAD9A364322FF9
:10598E000991199195958795179507951A930A93ED
:10599E0008958AD9A364322A09911991000F111F13
:1059AE00881F991F1A930A9308952EF4A364303C0E
:1059BE002296990F880B990B0895D4D9A3666C2D56
:1059CE00F29A08955EF2A3666C2BF29808957CFA13
:1059DE00A26D40FFFC01819191910895CAFCA36DC7
:1059EE006340FC01819190E008956EDDA3647570B3
:1059FE009A938A9308953CD9A2303DFF0197880B64
:105A0E00990B089506DAA2303CFF990F880B990B7B
:105A1E0008954CDA83783E72FC01899199919058E1
:105A2E0096958795808392937292CF0108952AFD61
:105A3E00A33E786190589695879508951CD9A378C2
:105A4E00613E880F991F9058089536E18370666CF9
:105A5E009AD6008022E1837A666C95D6000088E89B
:105A6E00B5656E646974FEB7EDB771827282089582
:105A7E0068D8B57264726F700F910F910895C2EE6F
:105A8E00A3733E649A938A93990F880B990B08958A
:105A9E009ED8826869FF9A938A93EAB5FF27E25BE4
:105AAE00F84A85919591089588D7A24070009A93EF
:105ABE008A93CA0108959ED7A370322B4E5F5F4F13
:105ACE000895F2F5A37469759A938A93C10140976C
:105ADE00089542E1A33E696E9A938A93C101049799
:105AEE0008950CF9A727736F757263659A938A935D
:105AFE00C1010897089562FAA2702BFF460D571D3B
:105B0E000895C6DAA3702B2B480F591F89919991CE
:105B1E00089546DBA527656D69749A938A93C10132
:105B2E004897089584DEA4276B6579FF9A938A932C
:105B3E00C1014697089574DEA5276B65793F9A9348
:105B4E008A93C101449708950CED886F7065726158
:105B5E00746F72FF0E94CA3368DBE30200004000DC
:105B6E0040005A00C2DBA46D736574FF0991199150
:105B7E00FC018081802B808389919991089574DB3B
:105B8E00A46D636C72FF09911991FC0180810095DF
:105B9E0080238083899199910895F2E2A56D7473A3
:105BAE00743009911991FC018991999110811023FA
:105BBE00089552F3A46D747374FF09911991FC0149
:105BCE008081802390E0089540F8A469646C65FF9D
:105BDE0072600895EED7A462757379FF7D7F089584
:105BEE003AEC8123F1017297A081E881F9810E2FA1
:105BFE00A230F9F0A03189F0BB270027E82BF92B52
:105C0E00EF2BF9F0F3D7002D0C019A938A93CF0165
:105C1E000A3008F0095D005DBCC296958795F79530
:105C2E00E79596958795F795E79596958795F795C8
:105C3E00E79596958795F795E795AA950A23F983A3
:105C4E00E8830F01E5CF98FC822373FFF101729771
:105C5E00A081AA3039F0C6DF082A192A0128D9F7FF
:105C6E000895C0DF0097E9F78881998110E306E077
:105C7E00809FF001909FF00D111D09EBB0E8909FF1
:105C8E00B00DE11DF71D171D0DE8909F0894E01D46
:105C9E00F11D171D809FB00DE11DF71D171D00E3AF
:105CAE00AAE0EA9FC001FA9F900D011DBA9F810DD7
:105CBE00971D071D8A9FF0019A9F90E3F00D911D8D
:105CCE0080E3EA9FB12DFA9FB00D811DF0E3BA9FDC
:105CDE001F0EF101A191B1911E928394103381F4A4
:105CEE0010171907180791F08E9383941017190740
:105CFE0069F09E938394101749F00E93839406C017
:105D0E008E939E930E931E9304E0800EB293A293F5
:105D1E00089524EF84736B6970FF082F8991999110
:105D2E00E991F991019730F011911930D9F31017CB
:105D3E00C9F331970196FA93EA9308953EE284737C
:105D4E0063616EFF082F89919991E991F9910197FD
:105D5E0088F31191193069F31017C9F7EACFCAD930
:105D6E008346637910D5803EBAE2887661726961A6
:105D7E00626C65FF12E043D00027180F091F0293D3
:105D8E00129386C2DCEE89327661726961626C654D
:105D9E0014E0F1CFB0DDA3383C3C982F80E008959D
:105DAE00E2DAA3383E3E892F90E008957AD7A23EDC
:105DBE003CFF082F892F902F089554ECA5666C6137
:105DCE0073687ABC0895E2F6A6656570726F6DFF12
:105DDE0002E00ABD08956CF6A372616D04E00ABD7F
:105DEE00089554D8A26470FF9A938A938AB599271E
:105DFE0087549D4F089594E18468657265FF9A9368
:105E0E008A93EAB5FF27E754FD4F8191919108954A
:105E1E00D8F68363662C9A938A930091B9021091F7
:105E2E00BA02903F10F09F709067801B910B1AF48E
:105E3E008095909501968C3F8FE098078991999166
:105E4E0048F09058969587959A938A938EE094E9A8
:105E5E00B6D7B5C7801B910B0297959587959F7006
:105E6E00906DADC79ADEA53264726F7022968991DD
:105E7E0099910895ACD8A432647570FF0881198188
:105E8E009A938A931A930A9308955AD985327377FF
:105E9E006170FC01A991B99189919991099119911A
:105EAE00BA93AA93FA93EA931A930A93089502EE79
:105EBE0085737061636500E237C75AEE8673706151
:105ECE00636573FF019730F0F6DFFCCF3CF0A464FE
:105EDE00726F70FF8991999108958CD8A473776130
:105EEE0070FF8C01899199911A930A9308952EEB64
:105EFE00A47069636BFF880FFE01E80FF71D819197
:105F0E0091910895FEDEA46F766572FF9A938A933F
:105F1E008A819B81089594F6B23E72FF8F939F9370
:105F2E0089919991089546DFB2723EFF9A938A93B2
:105F3E009F918F9108951AE0B27240FF9A938A93BF
:105F4E00EDB7FEB7828191810895FCD8A36162738B
:105F5E0099231AF48095909501960895A2EAA12BA3
:105F6E0009911991800F911F089596EE85616C69C4
:105F7E00676E45DF01968E7F92C7EAEC866163639A
:105F8E00657074FF8C0188819981080F191F0F931A
:105F9E001F930E94803ED10119978A30D9F0883024
:105FAE0051F08F3741F08D30E1F48C9389919991B6
:105FBE000F910F9196CC7C928991999108811981BC
:105FCE00081B190B31F30197C9D7030820080E944B
:105FDE001338DFCF899199910C91002349F37C926C
:105FEE00D8CF082FA1D6A991B9918D93CD011F912C
:105FFE000F910817190759F674CC18EFA373704058
:10600E008E019A938A93C80108952AEED27322FFC5
:10601E00C5D36AEF7ABC04D0E1CEF4ED822C22FF18
:10602E009A938A9382E261D1EADE70DF02968E7FC6
:10603E002ED76EC576E3D465786974FFA5C6F2DAFD
:10604E008677697468696EFF09911991A991B99162
:10605E000A171B0709F010F4A817B907880B990B3C
:10606E000895BCDDA23C3EFF09911991801B910B56
:10607E000895AEE0A13D09911991801B910B0197F6
:10608E00880B990B089582E0813C09911991081BA8
:10609E00190B0BF41095110F880B990B0895FEF93F
:1060AE00813E09911991801B910B0BF49095990FDC
:1060BE00880B990B0895DAE0A2753CFF09911991AE
:1060CE0008171907880B990B089584E1A2753EFFF6
:1060DE000991199180179107880B990B0895D6E1B4
:1060EE00A22170FFAC0189919991089569D688E536
:1060FE0091E065C6E8D78FE493E961D69A938A93C7
:10610E008FE593E95CD602E010E45EC610E459D642
:10611E00E1CE34DBB421703E72FF4F935F93AC013E
:10612E00899199910895E6DDB3723E705F914F911A
:10613E0008953EDAA33E70729927803208F087FDEB
:10614E008EE2089570E2A12D09911991081B190B89
:10615E00C801089512DBA36E69702296089520F08F
:10616E00A47475636BFF099119919A938A931A938C
:10617E000A93089580EEA27570FF9A938A9382E037
:10618E0090E00895D8DB84686F6C64FF082F8991C6
:10619E009991F101A191B1910E938394B293A2932F
:1061AE00089572E0823C23FFFADAF1011183008335
:1061BE008824089562EDA564696769748A3008F0D1
:1061CE00895D805D089556DC82233E002296F101A2
:1061DE00819191919A938A93882D0895AF93BF934D
:1061EE0043DD9F9110E39711192F8F91881989F133
:1061FE0020F4A81BBF4F880E04C01E9383948A956B
:10620E00E1F7A193B19325C072D983752E720C015B
:10621E0088279927C9DFD001729700810A30F1F2E1
:10622E0003C0AF93DFDCAF91A150D8F712C022DDCF
:10623E00847369676EFF97FF4DCE8DE2A7CFA4FBE7
:10624E0082752EFF1DD3B0DF01DD0DE274FDA1DFDF
:10625E007F7EBCDFE1D62FCE56FB8375642EF3CF47
:10626E0070FC812E992372F770618095909501963E
:10627E00E9CF52F482642E0099232AF770610E94AE
:10628E00C639E1CF58DB88636F6E7374616E74FF2D
:10629E007064EAD4E8D49A938A9380EB92EECED7C8
:1062AE008AC577FD0C94343C089594DD8932636F72
:1062BE006E7374616E7415DED7D4D5D4D4D47BC509
:1062CE004EE38475736572FF7062CED4CCD467775B
:1062DE009A938A938AEE92EEB1D76DC5820D931D75
:1062EE00089594FA857061727365F1013897A191E2
:1062FE00B1919A938A938191919101911191A00FED
:10630E00B11FFD01801B910B8F939F9308810ADDB6
:10631E000F0124961CDD09F00197E019F10919828D
:10632E0008821F910F91081B190BCF01F1013497B1
:10633E00A191B191A00FB11FB293A2930895000045
:10634E0084776F7264FFD1DFE991F991829388238C
:10635E00CF01089536F286696D6D65643FFFDED319
:10636E00982E8074089506DE8466696E64FF9A9393
:10637E008A93FC0101918EE29AEF033030F082ECA9
:10638E0094EE053010F082E29BED96D059F7809195
:10639E00BF029091C00290C0BEE3837469239A93AA
:1063AE008A93F1013E97819191910896B6C3D2DA04
:1063BE00A37469629A938A93F10170978191919176
:1063CE000895B6EB873E6E756D626572F101729738
:1063DE00B080A62C882E89919991DC01882069F0D5
:1063EE00CD019CD38E3221F18A3318F0813628F0FC
:1063FE008752805310F08B1530F0BA93AA93882DE4
:10640E0099278A0D0895E991F991EB9D8001FB9DE5
:10641E00100DE991F991EB9DE82FC001FB9D8E0FB8
:10642E00901D011D171D9A938A931A930A93A72CF8
:10643E0011968A94A9F609F344EFC128F0D32900E6
:10644E0054DF6F7B13CD7ED9A2322DFF02970895B4
:10645E008091C4029BB58095909501969BBD04D00A
:10646E0010E40CC08091C4022ED6982F92958F7096
:10647E009F70089510E701C010E6F4DF8068812E4A
:10648E00982995FF90619BD49A938A938BB5EDDFF3
:10649E008069982994C410E4F0CF4AFAA2626CFF86
:1064AE009A938A9380E290E008959A938A9380E279
:1064BE004ACFFEEE83286629A881B9810C01F3D15B
:1064CE0041F0F001329768940E94B63C0097A1F714
:1064DE0008953196EE7FF058F983E883902E019758
:1064EE0096FC029608956CD48CE791EEA7C668D4FC
:1064FE0004961BB51711A2C602E0E6D540969EC6BD
:10650E0088960496449715D010E008E065FD0CE0DF
:10651E0059D4616093C680969A938A93BCDF61606A
:10652E008DC607D0B8DF64619A938A938AE09AED9C
:10653E0085C66F7D8BD30C97F0D28A59934909F497
:10654E006062C8CCCECCF5DF8091C4029BB5BBC5D2
:10655E0037D4A0E123D221C2F6DF9A938A93019613
:10656E0063FDF6CF65FDABD5A0E918D205C0EBDF14
:10657E0063FD0DC065FDA3D5A0E810D265FB16F432
:10658E006F7D08959A938A9382EE9EED57C618D426
:10659E0002E09AD502C2000089696E74657270724B
:1065AE00657409911991D10118970D931D938D93CF
:1065BE009D93899199917D927D9277DF09F48ACC92
:1065CE00D6DE8991999109F47DC012F477FD12C03F
:1065DE0094FC77FD09C0C2D40C434F4D50494C4535
:1065EE00204F4E4C59FFF5C260640E948D3E66FDF1
:1065FE006274E3CF6E7E1AED8A30910711F46061FA
:10660E0057C067FF4FC0EAE4F6E6ADE1059115917C
:10661E008017910719F0AA95C9F744C0A73018F44E
:10662E00CFD3049645C0AB3018F41BB51930D0F556
:10663E00F89605911591F801099542C000D910D927
:10664E006EDF56E146EF76E084E0CAE0DEE098E0E9
:10665E00B0E0F0DE7ED7F2E028E17ADB94DBC8DB37
:10666E00B0DB30FA4EFA00FA1EFA20D9C4D8DAD8C6
:10667E00CEFCB2FC16FB413243322F3252327E3206
:10668E005232983287328832923289327A327D3063
:10669E008D308130C934B03494347F34B332BE324D
:1066AE004D3C513C6F7D19ED8E3F910709F46062B0
:1066BE0095FE02C0C3D504C0AEDB6D7F94FC626054
:1066CE0067777BCF627C1CD0009771F077FF09C093
:1066DE00082F8991999101FF02C003DCC4D2C3D265
:1066EE006CCF89919991ECCF6777899199919CD0D4
:1066FE00C5D792D461C26EEE876E756D6265723FBC
:10670E009A938A937A927A927A927A92DC018D9106
:10671E0099270C910B5221F0023011F0002702C084
:10672E00019711960F93F1017297B0800C9103525D
:10673E0021F0023019F028F40B5F065FB02E01979E
:10674E001196BA93AA9345DE89919991A9F401976E
:10675E00E5D18E32899199910F9131F407110FD6AF
:10676E0080D782E090E00895899199910711E4D63F
:10677E0099838883C30108950F91249688279927BA
:10678E00089583286329FF91EF919A938A93EE0FD0
:10679E00FF1F85919591089583282C29FF91EF91E4
:1067AE00F4DFF795E795EF93FF9335CB74F1832ED6
:1067BE0073740CE3B9D2F1017297108104E21031B7
:1067CE0039F003E21A3021F00FE310F4105D012FBF
:1067DE00ABD20CE2A9D29A938A93EAB5FF27EC5A70
:1067EE00F84A859195914AD78F7016D40EE39CD2B4
:1067FE00FEC3833E6470E9E0F0E0A1ECB2E0F999EB
:10680E00FECFF2BDE1BD6FBA00B51E91011739F092
:10681E0010BD0FB7F89414E01FBBF99A0FBFE150EB
:10682E0070F708958364703EE9E0F0E0A1ECB2E009
:10683E00F999FECFF2BDE1BD6FBA10B51E93E150CE
:10684E00D0F708953EF5866C7368696674FFFC0197
:10685E008991999131970AF1880F991FFBCFECF826
:10686E0086727368696674FFFC01899199913197FC
:10687E00A2F096958795FBCFCADDA566616C736510
:10688E009A938A938827992708956EE1A474727556
:10689E0065FF9A938A938FEF9FEF08950CD9826EBE
:1068AE003DFFA991B991FC01F0589D918591082F5A
:1068BE008F70891781F785911D91181761F79A9539
:1068CE00D1F788270895D6DD8664696769743FFF1E
:1068DE008A3318F08136A0F28752805388F29A9349
:1068EE008A93F10172979081891B880B990B0895F9
:1068FE00EAD363FF09C0E7D3CD0104960ED19F7092
:10690E0090678F701DD05BC21BD080E893E257D288
:10691E009A938A9382EE9EED91C4D5D363FF09C0FC
:10692E0095D10497FAD09F709067C9D3A0E809D08B
:10693E0005C006D09A938A9380E893E2BAD7ABC784
:10694E00A0E0617F9A938A938091C4029BB5E894EC
:10695E0026C0F9DD63FF0AC079D10497DED09F709F
:10696E0090678F700FE08027902714C09A938A93B8
:10697E0088E093E29A938A9380E895E9E1DF99D7CC
:10698E000BD000CEE0DD63FF20C060D10497C5D0F0
:10699E009F778F7098D3D4DF8CD7A0E06894803621
:1069AE00970560F4803250F08052982F8F70907F50
:1069BE009295990F916B93F98A2B7BC79A938A9331
:1069CE008A2F91E991F975D774C79A938A9388E0C3
:1069DE009BE2B6DFE1DFD6CDBEDE857369676E3F23
:1069EE00E881F981082F9A938A9381918B5221F035
:1069FE00823011F088270895FB83EA830A95088375
:106A0E0008954EE086756D2F6D6F64FFDC018991E0
:106A1E009991ECD01A920A92089518E283752A2F52
:106A2E008F939F938991999168D5BF91AF919A93C6
:106A3E008A93CF01DBC014EC86752A2F6D6F64FF2D
:106A4E00EFDF1A920A920895A8F585636D6F766549
:106A5E00E991F991A991B991F93010F4B930B0F0EA
:106A6E004F935F93AF018D01DC01C80108C0AF9356
:106A7E00BF9304D6C7D7460D571DBF91AF9111973F
:106A8E00B0F75F914F9126CA0D9101930197E0F7F0
:106A9E0021CA54E1812CB3D9029692938293029724
:106AAE00C0C71AFA82632CFFAAD9019692938293D9
:106ABE000197C6C764E1836E3E63AAD78F70E80F55
:106ACE00F71D3196EE7FCF01089586F683633E6EF5
:106ADE000EEF8BD10E5F87FF21F09F3758F4903267
:106AEE0048F08F3739F050F4803220F08991999127
:106AFE000E3079F7229687E0992708958F70D1F39B
:106B0E008E7F8017B9F7E6C980DA85706C61636590
:106B1E00B5D996D70196E5D99BCF6BC779C758F6ED
:106B2E008471756974FFF1017A97A191B1910FB7D4
:106B3E00F894ADBFBEBF0FBF7F7704E00ABD74DE11
:106B4E00F1017C97A191B191AC17BD0728F0A191ED
:106B5E00B191AC17BD0720F001D20353503F39C09D
:106B6E00E2D028DC9A938A931ADC0A970BDAA3D91F
:106B7E0018DD77FDE5CFB2D53EDEF0D103206F6B89
:106B8E004BD206D0DCCF28F28670726F6D7074FF18
:106B9E000ED50A09FAF18561626F7274F1017C9764
:106BAE00C191D191C0CF2AF5873F61626F72743F58
:106BBE00009789919991C9F47ED90FE3B5D0EECFA4
:106BCE006AEC863F61626F7274FF0A811B81012B32
:106BDE0019F471D921D2E2CF19C28ADFD661626F60
:106BEE00727422FF15DADADDD8EB0895009731F0D2
:106BFE00D7D7FC01899199916894D5C7FC018991E9
:106C0E009991CEC712EA8675642F6D6F64FFFEDE12
:106C1E009A938A93CF010895AEFC836C6974FF91A9
:106C2E00EF91B3DDF795E795099448E481273DDCB4
:106C3E009EDBBECFB2F38463686172FF31DC55DB3D
:106C4E0049D9E6C6C0F2A569686572659A938A93BA
:106C5E008091B9029091BA020895EAEBD65B63680F
:106C6E0061725DFFEBDFF9C520DC81DB69F08827FF
:106C7E0099277F7973D10F414C5245414459204495
:106C8E004546494E4544A1DFE881F981808188233C
:106C9E0011F0803108F08CDF8091BF029091C0021C
:106CAE0008D6ECD460DAE091B902F091BA02F09312
:106CBE00C002E093BF023196FA93EA939A938A93B5
:106CCE008068072F0076802B7F793197E894ADD6B8
:106CDE00BFDE02968E7FEE27DBC0D6E88663726536
:106CEE00617465FFC1DF9A938A938AEC93E3ACD803
:106CFE0086D80AB5002309F40296DBC578DDD87074
:106D0E006F7374706F6E65FFD0DB31DB09F450DF8B
:106D1E009923899199911AF441DDAAE750C07BC855
:106D2E00D0F3826372FF0DE09A938A93802FD7C7B8
:106D3E008728646F65733E299A938A938091BF0268
:106D4E009091C002BADE0296FC019F918F916894D9
:106D5E006CC6F2F6D5646F65733E20DD46ED1EDD22
:106D6E0052F50895EEE0A15D7068089592ED813AB6
:106D7E0070687ACFD2E3873A6E6F6E616D6566DFAB
:106D8E00F3CF96E0D13B7F7761FD15C05FDF2DD04D
:106D9E008C01107F105D41F08991999126D0943924
:106DAE008E4039F48CE001C09F7EE991F991689490
:106DBE00E4C5229602C09A938A9388E095E979C534
:106DCE0010E008E081D1025041DF800F971D11D6EF
:106DDE008F71812B9A938A9334970CD68F71812B56
:106DEE0068D567C5D0D7822D40FF02979A938A93B4
:106DFE0000C6EAD8A573746174659A938A93C30129
:106E0E0077FF8827089554E8A66C6174657374FF44
:106E1E009A938A938FEB92E00895DAF5A27330FF7E
:106E2E009A938A93C1014C97089536DFA27230FF70
:106E3E009A938A93C1014A97089566FBA574696374
:106E4E006B739A938A93C701089546EAA674696391
:106E5E006B733DFF8C01C701801B910B0895E2F50A
:106E6E00A77469636B733E6E87011A930A93089534
:106E7E000000827573FF019719F0E8DA0296FBCFD6
:106E8E00899199910895B8F185616C6C6F74EAB52A
:106E9E00FF27E754FD4F01911191800F911F92939F
:106EAE00829318C82CF8823240FFA3D59A938A9306
:106EBE00A1C50AE083736862182FE091BF02F091BA
:106ECE00C002A7D53197812BE894AFC5A6E5896995
:106EDE006D6D65646961746510E49A938A93EDCF64
:106EEE0060F887696E6C696E656410E2F6CFBCE778
:106EFE00832E6964C3D38F708FC066D9823221FF0F
:106F0E0032D902968ED58DC5A8E3A3737172889F70
:106F1E00C0010895EADE8473717274FF8C018827B4
:106F2E0090E88927889F0015110508F48927969502
:106F3E00C1F708956CDFA12A09911991FC010E9FEA
:106F4E00C0011E9F900D0F9F900D0895FC010E9F86
:106F5E00C0010F9F900D089583287322FF91EF912A
:106F6E00EE0FFF1F05919A938A93CF0190589A9333
:106F7E008A93802FE00FF71D3196F695E7950994C9
:106F8E00D2F185776F726473CEDE8FDA09F4786092
:106F9E009A938A938EE29AEF0DD082EC94EE0AD0F9
:106FAE0082E29BED07D08091BF029091C00202D089
:106FBE00777F4BC173FD0FC0FC01F058A881B981DA
:106FCE000D9115911F70101750F00D901590011422
:106FDE0031F40A95D1F79A938A938CDF3CD90297B4
:106FEE0008D5009739F79FCE14DA822E73FF33D966
:106FFE009A938A9305D814DFFCD4029708811981DD
:10700E000817190718F4F1DE1DD9F8CF249612C50A
:10701E00D4D88474797065FF882E899199918820CF
:10702E0021F02CD35CD68A94E1F704C580F18464F8
:10703E00756D70FF04E0969587950A95E1F7F1015D
:10704E007297A081A03108F47860DC018991999142
:10705E00AF93BF9368DE9A938A939A938A939927F4
:10706E0084E073FD8395D3D8AFE0AF9307D39A93A3
:10707E008A93992782E073FD8395C9D8AF91A15069
:10708E00A0F7409700E1802EF9D256D828D68A94E0
:10709E00D9F7BF91AF911197D8F6777F8DE01FC6C4
:1070AE00842C3F303DFF9A938A9365FD03C084E99B
:1070BE0097EDC4C004D080E097E96F7DFAC304E079
:1070CE0003C006E001C008E0E9EBF2E0A191B19146
:1070DE00A01BB709B293A29308959A938A9389E05D
:1070EE0094EF64FD9B7FE5C3C2F5D26966FF07D0BE
:1070FE006A7EACDD9A938A9380E090ECDAC360FDF1
:10710E001FC065FD62FF18C09A938A9389E090EFC5
:10711E009DDD0A976ED49F7090639A938A9381E156
:10712E0094EF9A938A9366D49F7090630EE0CCDFAF
:10713E00C0D3BFD3BED3BDC364FDC3DFB4DFCDCFD9
:10714E0065FF06C09A938A9388E090EFB8DFB1C3CB
:10715E00B6DF9A938A938AE691EF70C089919991DE
:10716E0008F00895A4DDD33069666061B6DFC1CF43
:10717E00E6FCD4656C7365FFBCDFE4D904C09AE805
:10718E00D47468656EFF0EEF1FEFFC018091B9029B
:10719E009091BA028E1B9F0B800F911F959587952C
:1071AE009F70906C626003CE10D8D5626567696E71
:1071BE004DCD96F5D5756E74696C6260A0DF6A7EF2
:1071CE0018C00EFBD630756E74696CFFA62D62600A
:1071DE000091B902801B82508E7F9070880F991F8C
:1071EE00880F991F8A2B946F64C37ADFD56167610C
:1071FE00696E62600091B9021091BA02801B910B08
:10720E000297959587959F70906C53C390EFD577A5
:10721E0068696C656CDF96C96EE8D67265706561DB
:10722E0074FFE7DFB0CF2CD9D6696E6C696E65FF3F
:10723E006E7CFDDC03C0FCFC83696E2C26D215E946
:10724E008830910711F035D3F9CF2296F3C386FB20
:10725E00D3666F729A938A9384E892EF67FF04C0A5
:10726E00677710EAAEDD0696E9DFF0DC04979A93B5
:10727E008A9302970895DC018991999100C0AF938A
:10728E00BF930895F2DDD2646FFF9A938A9388EAD2
:10729E0092EFD4DFDBDC08970895DC018991999198
:1072AE008C01899199910F931F93AF93BF9308957A
:1072BE00DCF4D56C656176659A938A9382EE92EFD3
:1072CE00BDDFF39AE7EBF2E0A281B3811297B787A5
:1072DE00A68708950F910F910F910F9100C00895F9
:1072EE008EDBD46C6F6F70FF9A938A938AE193EF63
:1072FE00A5DFF39B7ECFF3989A938A938091C50274
:10730E009091C60200E010E040DF73CFBF91AF91C5
:10731E001F910F9111960A171B0708F0089540F35D
:10732E00A1699A938A93EDB7FEB7828191810895F0
:10733E00C8D7A16A9A938A93EDB7FEB786819581D5
:10734E00089514DFD46E657874FF02E010E01DDF3F
:10735E009A938A9388E793EF71DF0091B9021091A7
:10736E00BA02801B910B02974CCFBF91AF91119730
:10737E0008F0089512FD87646E6567617465099162
:10738E001991061917098709970942C094E2883F97
:10739E00646E6567617465FF990F8991999178F3B1
:1073AE000895DCDE8464616273FF97FDE8CF089573
:1073BE00DED9826D2BFF8C01990F880B990B05C0BE
:1073CE00F0F382642BFF09911991E991F991A9913A
:1073DE00B9910A0F1B1F8E1F9F1F1A930A930895B0
:1073EE0082E282642DFF09911991FC018991999194
:1073FE00A991B991A01BB10B8E0B9F0BBA93AA93B7
:10740E00089584F3A764696E766572740991199173
:10741E0000951095809590951A930A930895A2D988
:10742E00A364303D09911991892B802B812B0197F3
:10743E00880B990B089568F482643DFFD4DF0197A1
:10744E0007C046F482643CFFCEDF0BF49095990F93
:10745E00880B990B229608955ED882643EFFC3DF97
:10746E00B9F3ABF39BF7000086666F72676574FF26
:10747E001CD8CEDCBED220D89BDB2ADB02979A9397
:10748E008A93B7D295DB9093BA028093B902B1D2A8
:10749E00BFDCC7C276F4866D61726B6572FF7ABC13
:1074AE0021DCBDDB0009D2DB0ED0D0DB0A96909337
:1074BE00BA028093B90204E00ABD40DC43D09A932D
:1074CE008A9387EB92E0ABDB0A00C2CAE8F4A56CA4
:1074DE006F61642B71600895AADBA56C6F61642DDA
:1074EE007E7F2D980895F0F2A46C6F6164FF9A93DD
:1074FE008A938091C3029927089509911991809FCB
:10750E00D001919FF001909FB00DE11DF71D819F5D
:10751E00B00DE11DF71DCD01089500D8873F6E65B2
:10752E0067617465990F8991999130F0089596EB82
:10753E00A66E6567617465FF8095909501960895B6
:10754E0083286429BF91AF91FF91EF911ED9FD0160
:10755E0009940091C6000F3009F44BC41091B60285
:10756E00139549F01093B602A091B402B1E00D93B9
:10757E00A093B40205C4FCE743D002C45ADFD35B28
:10758E00275D55DB6AC11CF28576616C7565AADBD9
:10759E0082DAD2DBD7DF2DC2C4E1856465666572FF
:1075AE00A1DB9A938A938AEA9BEE75DAC5DBCADF72
:1075BE00B7C3C0F3C26973FF3ADB04961AD277FFE2
:1075CE0030C24BD1EBD830FA08954EE2C2746FFF41
:1075DE00F3CF9CF3877475726E6B65790E94D13A06
:1075EE00B7022AEA83747830746050D29091C0004A
:1075FE0095FFFBCF8093C600899199917B7F08956B
:10760E00E091C000E5FFFCCFF093C60008958EDA3E
:10761E00837278303BD20FB7F894A091B602A15086
:10762E0020F40FBF70FF2D98F5CFA093B602A09156
:10763E00B502B1E09A938A938D919927A093B502E2
:10764E000FBF70FF2D9A08954CDDA47278303FFF66
:10765E009A938A938091B60290E00895DED7837252
:10766E006F74A991B99109911991BA93AA939A93AA
:10767E008A93C801089520DE8363402BC9D1FA9303
:10768E00EA930895B8DA82402BFFB3D1FA93EA93C6
:10769E000895BEF68377642BF894A895877088605A
:1076AE0098E190936000809360007894C3C122DAD1
:1076BE008377642DF894A89574BE08E1009360005A
:1076CE007092600078940895BAD9A3637764A895F0
:1076DE00089564E38669666C757368FFF1993DC31E
:1076EE0008956EDA85656D70747999DA6CD797DACC
:1076FE00000995DA0C00ACD997C8DD2704B6D4BFC3
:10770E001FB6F894A2E0B0E0DD93AA31E9F700913C
:10771E006600ACE17D92B930E9F700936600DA9429
:10772E00C1E6D3E003E213E00DBF1EBF6394C2DFD8
:10773E0003EE12E0180173DA5AD771DAC7026FDA64
:10774E00140086D9E0E0F9E068942CD1019609F492
:10775E00CCDF65BEF2E0F5BFF4BD03E005BD09EF79
:10776E0007BDF0936E000FEF1FE410938900009396
:10777E008800F0936F0000EB1AE31093A5020093BC
:10778E00A40200E10093C400F093C00008E9009346
:10779E00C10006E00093C20047D8789400E202FCD4
:1077AE0002E403FC07E501FC05E400FC00E516FC21
:1077BE000DE4BADA1ED0259A2D98F999FECFF30171
:1077CE000FEE002E19E04AD309DF009771F0C6DBE9
:1077DE000673746172743F001FDC80ED97E049D12F
:1077EE008ED2009711F4FADE91D2D8C9A2F6837622
:1077FE006572B4DB25204F707469466F7274682011
:10780E00352E36642041546D656761333238203031
:10781E00392E30392E323032310DFECBB2E1C23B31
:10782E0069FFFDD90C9445D0FAD9C73E7F7741C088
:10783E0006FD84696E7421FF8150880FE0E8F2E046
:10784E00E80FF71D89919991905896958795F0C0FC
:10785E0006E7C76C69746572616C9A938A938EEFB2
:10786E0099EDECDC67FD686060686E788093C40209
:10787E009BBD9A938A93982F10E802D0892F10E916
:10788E0092958F709F70812B906E13C007D00196CA
:10789E00A0E95DC803D080E990EE0BC010DC8091AA
:1078AE00C4029BB59A938A93A0E851C8F8F08269F6
:1078BE002CFF689402E0F29947C0A9EBB2E0ED917B
:1078CE00FD91E00FF71DFE93EE93E01BF70955C0F7
:1078DE0046F28369632CE89401E0EDCFCADE86732D
:1078EE006F75726365FF9A938A93F1013897819150
:1078FE0091919A938A9381919191089584ED872F16
:10790E00737472696E67DC0189919991099119916D
:10791E008A1B9B0B0A0F1B1F1A930A93089512F4CE
:10792E0087646563696D616C0AE0F101729701937A
:10793E0071920895E0F88368657800E1F6CFDAEA8F
:10794E008362696E02E0F1CF52DB08DB0341443FF4
:10795E0063DB24C985910EF49591F0580895F05883
:10796E00FD11F8CFAE2FAC25AAF3B2E08D910EF437
:10797E009D91AC25EA2FF0580895F058EE3417E596
:10798E00F10710F7FD1519F4EC251AF4EC25CAD100
:10799E00EF77F2E00EF491838083F19A4BC06894F6
:1079AE00F038E8F6F999FECFF950F2BDE1BD6FBAA5
:1079BE0080B52EF43196F2BDE1BD6FBA90B5319619
:1079CE00F75F0895F299C0CFF038B8F6F950F999EB
:1079DE00FECFF2BDE1BD80BD0FB7F89484E08FBB42
:1079EE00F99A0FBF3EF53196892FE894F0CF2EF31A
:1079FE008140FC01F93098F681919191089554FAE5
:107A0E0083706321E894FA0110C030ED826340FF69
:107A1E00FC019927E894F93018F681910895F0DB6E
:107A2E0081216894FC0189919991F93058F60EF4F0
:107A3E0091838083899199910895B2EA826321FF9F
:107A4E00E894F0CF5ADA837063409A938A93FA01DE
:107A5E00E0CF3AEE827040FF9A938A93FA01CACF32
:107A6E0006DB827021FF6894FA01DFCFACE8826DED
:107A7E0073FF8701800F911F09D08701081719071F
:107A8E00D9F7D8CF18EB857061757365F10171FF69
:107A9E0015C0E33E99F4F23089F40091B60200234A
:107AAE0069F470FD2D9863BE7092810008EB72FD33
:107ABE000093C100889573BE70FD2D9AA8953C97D2
:107ACE00A191B191A215B305C9F01FB7F894DF9338
:107ADE00CF939F938F935F934F93F1010EB70293C2
:107AEE000DB702931D010E910EBF0E910DBF4F915A
:107AFE005F918F919F91CF91DF911FBF0895D0EB32
:107B0E0086313032342A2FFF09911991F8DCF6951F
:107B1E00E7959795F695E7959795892F9E2F871D53
:107B2E00971D089568E28375642A8C018991999155
:107B3E00E6DC5C0189919991E2DC9A938A93CF01FC
:107B4E008A0D9B1D0895FCF783756D2AD6DC9A93DA
:107B5E008A93CF0108957AD885752F6D6F641DD0E5
:107B6E001A920A920895C4EA836D6F6416D0C0010A
:107B7E0008956894C2CD44F983676364099119919D
:107B8E0080179107A9F318F4081B190BF9CF801B66
:107B9E00910BF6CFC6E082752FFFDC01899199918A
:107BAE0000241124E89408E0BB2369F5AA2309F305
:107BBE009EF0992389F48A1710F121F4C3010895D8
:107BCE000A9549F0880F001C10F00A16C8F30A1A1D
:107BDE0083950A95B9F70895880F991F001C10F028
:107BEE000A1610F00A1A8395880F991F001C10F0C0
:107BFE000A1610F00A1A83950A9571F708950C016A
:107C0E008827992708959EF08A179B07C0F3B1F233
:107C1E00092E9927880F001C111C18F00A161B0636
:107C2E0018F00A1A1B0A83950A95A1F70895880F72
:107C3E00991F001C111C18F00A161B0618F00A1AC0
:107C4E001B0A8395880F991F001C111C18F00A1629
:107C5E001B0618F00A1A1B0A83950A9541F7089518
:107C6E007CED812FDC01899199910B2F09270F93C0
:107C7E0097FD62DCBB231AF4A095B095119690DFA8
:107C8E000F9107FD59CC08952AE0822B21FFB1DE1A
:107C9E00329709911991800F911F6894C6CEECD935
:107CAE00836D617809911991F801F927F80112F0A5
:107CBE00E81BF90BF7FFC801089576FB836D696E1B
:107CCE0009911991FC01F127FC0112F0E01BF10B57
:107CDE00F7FFC801089544E084656D6974FFA8EE4E
:107CEE00BFEFA20DB31DED91FD9113C028EC836B78
:107CFE006579AAEEF5CFF6F4846B65793FFFACEEAD
:107D0E00EFCFF0EE8765786563757465FC01899138
:107D1E009991F058F695E79509948CF5834065781E
:107D2E0068DEF4CFF093C202E093C102F19915D050
:107D3E00E091C102F091C202E0786F010FEFA0E076
:107D4E00B2E015911D930123A038D9F7F0980F3F9B
:107D5E0009F4F09AE091C1020895F999FECF4F937C
:107D6E00A0E0B2E026D14F910FE7A0E0B2E005907F
:107D7E001D900110C2CC0150D0F7F198D02E08956D
:107D8E001F910F91FF91EF913FBFD2011895E39490
:107D9E0013F049F4F3942093C30228E22093850054
:0A7DAE007092840022273FBF189551
:107DC00039E0309381003FB7E9CF2D01A9E0A093BE
:107DD0008100A32F3FB7EF93FF930F931F93B2E060
:107DE000ED91FD910994FFFFFFFF23953FBF18958B
:107DF00039E03093810038E93093C100189584CC84
:107E00003DC033C032E8E1CF34E8DFCF36E8DDCF24
:107E100038E8DBCF3AE8D9CF3CE8D7CF3EE8D5CF3A
:107E200030E9D3CF32E9D1CF34E9CFCF3FB7DDCF7F
:107E300038E9CBCF3AE9C9CFC3CFFFFF3EE9C5CF81
:107E400030EAC3CF32EAC1CF34EABFCFD1CFFFFF90
:107E500038EABBCF3AEAB9CF3CEAB7CF3EEAB5CF72
:107E600030EBB3CF32EBB1CF13E007B700FDFDCF5E
:107E70000FB7F89417BFE8950FBF0895DD2704B634
:107E8000D4BF01FA1EF088278ED0BAC0C0ECB2E091
:107E900028E1298393E09C838EE085D07DD08134D6
:107EA00021F47AD089D073D06EC0823494E119F075
:107EB000853419F495E07CD066C0853539F46CD0F2
:107EC000C82E6AD0D82ECC0CDD1C5CC0863511F5CE
:107ED00063D0E1E0FF2792E08C3A41F45DD0803E30
:107EE00051F766D099E097BFE8954DC0883539F0D5
:107EF000EE27803521F093E05BD08827D4CF4CD09B
:107F0000803019F08830C1F7E26052D099E097BF15
:107F10008491C9CF8436C1F463D0A0E03DD08D9365
:107F20004A17E1F749D0A0E016F04BD02CC0D2BCE4
:107F3000C1BC8D9180BD84E08FBBF99AF999FECFC9
:107F4000C3944A95A1F71FC0843779F449D034D03F
:107F5000F60136F4F2BDE1BDF89A80B5319601C064
:107F6000859115D04A95A9F70EC0853739F424D0EC
:107F70008EE10DD085E90BD08FE095CF813511F4DE
:107F800088E011D019D080E102D088CF84E19881B7
:107F900095FFFDCF8E830895888187FFFDCF84FFF5
:107FA000A8958E81089520936000809360000895C5
:107FB000F3DF9A95E9F7082EEFDF803239F3FFCF30
:107FC00040E8F601F09B50DF11E00D901D904DDF71
:107FD00032964250D1F7F60115E047DF11E145CF67
:0C7FE000DBDFDADF482FD8DF80FB0895DC
:087FF800A4F4847761726D05A9
:00000001FF
