:020000020000FC
:02000000FECE32
:1057680067D7FF0CFF084ADF56DF66DF60032303B5
:1057780040F76CF7A4D70A006403E8DCE2020000F3
:1057880002800C09BE03F8F54CE91ADBA3637764C1
:10579800A8950895F2DEA47278303FFF9A938A9311
:1057A8008091B60290E0089532EF872F7374726982
:1057B8006E67DC0189919991099119918A1B9B0B5C
:1057C8000A0F1B1F1A930A93089566F58764656389
:1057D800696D616C0AE0F101729701937192089505
:1057E800A2F98368657800E1F6CF8CEC8362696E74
:1057F80002E0F1CFD6FBA57469636B739A938A9321
:10580800C7010895F8EBA67469636B733DFF8C01BB
:10581800C701801B910B08952CF7A77469636B73FC
:105828003E6E87011A930A9308950000827573FFEC
:10583800019729F031D1A895A8950297FACF8991B7
:105848009991089520E5A3737172889FC001089506
:1058580062E08473717274FF8C01882790E889274D
:10586800889F0015110508F489279695C1F70895B2
:10587800FC010E9FC0010F9F900D0895E4E0A12A3E
:1058880009911991FC010E9FC0011E9F900D0F9F59
:10589800900D0895B0D8A1699A938A93EDB7FEB791
:1058A8008281918108953AD9A16A9A938A93EDB732
:1058B800FEB786819581089536E0857369676E3FE6
:1058C800E881F981082F9A938A9381918B5221F06C
:1058D800823011F088270895FB83EA830A950883AC
:1058E80008959EE0A23E61FF5C0189919991089517
:1058F8001EE6A2613EFF9A938A93C5010895982BEC
:105908008991999108959EFA837061649A938A9314
:1059180002D0C8010895D10150970D911D91ED91C4
:10592800FD913896F058A591B5910A0F1B1F08955F
:10593800A4D9C15B7F77089568F7B37270409A93D2
:105948008A938DB79EB70895F2EDA463656C6CFFDA
:105958009A938A9382E090E00895D4D7A7616C69FE
:10596800676E656401968E7F089580D9A563656C1E
:105978006C2B029608958ED9A563656C6C73880F9D
:10598800991F08959AD9A5636861722B01960895A5
:105998000AECA56368617273089522EFC15CF10196
:1059A800369701911191019311936F7B089520DC33
:1059B800A26569FF789408950CF4A26469FFF894CD
:1059C8000895C2D8A572736176659A938A93C101C6
:1059D8000297089524F3A5756C696E6B9A938A9360
:1059E800C1010C970895F0F2A47461736BFF9A9348
:1059F8008A93C1010E9708957EF9A26870FF9A9361
:105A08008A93C10108955AF1D22E22FFBBD335D70C
:105A180088F1089564DDA462617365FF9A938A939F
:105A2800C101429708954EE4A4756D696EFF09910E
:105A380019918017910708F0C801089530DAA47504
:105A48006D6178FF099119910817190708F0C801C5
:105A58000895F4D7A3616E64099119918023912365
:105A68000895ECFAA26F72FF09911991802B912B7E
:105A78000895A0E2A3786F72099119918027912760
:105A88000895C4EFA6696E76657274FF8095909547
:105A98000895A6DAA2312BFF01960895BCF0A23131
:105AA8002DFF01970895CAE5A2322BFF02960895AB
:105AB80052EDA53E626F647904960895B0DAA23279
:105AC8002AFF880F991F0895A4FBA375322F969576
:105AD8008795089516F0A2322FFF9595879508951A
:105AE80084DBA364322F09911991959587951795B1
:105AF80007951A930A930895EADAA364322A09915A
:105B08001991000F111F881F991F1A930A9308955E
:105B180082F5A364303C2296990F880B990B08955F
:105B280034DBA3666C2DF29A0895D6F3A3666C2B2A
:105B3800F298089514F5A26D21FFFC0189919991BD
:105B480091838083899199910895F8FAA26D40FF15
:105B5800FC018191919108953AFDA36D6340FC0188
:105B6800819190E0089562DBA36D6321FC01899126
:105B78009991808389919991089570DDA3647570D6
:105B88009A938A9308959CDAA2303DFF0197880B77
:105B9800990B089590DBA2303CFF990F880B990B65
:105BA8000895D6DB83783E72FC01899199919058CB
:105BB80096958795808392937292CF0108959AFD66
:105BC800A33E786190589695879508957CDAA378D6
:105BD800613E880F991F90580895B4E28370666CEF
:105BE80041D600803EEAB5656E646974FEB7EDB7CC
:105BF800718272820895CCD9B57264726F700F91F8
:105C08000F91089524F0A3733E649A938A93990F91
:105C1800880B990B089502DA826869FF9A938A9330
:105C2800EAB5FF27E859F84A859195910895FAD879
:105C3800A24070009A938A93CA01089510D9A3705C
:105C4800322B4E5F5F4F08953CF7A37469759A93A2
:105C58008A93C10140970895C0E2A33E696E9A9362
:105C68008A93C10104970895B2D7A727736F7572F5
:105C780063659A938A93C10108970895DEFAA27022
:105C88002BFF460D571D089546DCA3702B2B480F9C
:105C9800591F899199910895C6DCA527656D697486
:105CA8009A938A93C10148970895FCDFA4276B65EE
:105CB80079FF9A938A93C10146970895ECDFA52747
:105CC8006B65793F9A938A93C10144970895BAEE18
:105CD800886F70657261746F72FF0E943634E8DCF9
:105CE800E2020000400040005A0042DDA46D7365E6
:105CF80074FF09911991FC018081802B808389911F
:105D080099910895F4DCA46D636C72FF099119915F
:105D1800FC01808100958023808389919991089561
:105D280070E4A56D7473743009911991FC0189911F
:105D38009991108110230895A6F4A46D747374FFCB
:105D480009911991FC018081802390E0089502F95E
:105D5800A469646C65FF7260089552D9A462757372
:105D680079FF7D7F08952ADB834663797BD5803E62
:105D780038E4887661726961626C65FF12E002D16D
:105D88000027180F091F0293129344C3E8ED8123DB
:105D9800F1017297A081E881F9810E2FA230F9F004
:105DA800A03189F0BB270027E82BF92BEF2BF9F05E
:105DB800F7D7002D0C019A938A93CF010A3008F087
:105DC800095D005DA8C296958795F795E795969524
:105DD8008795F795E79596958795F795E79596951D
:105DE8008795F795E795AA950A23F983E8830F0124
:105DF800E5CF08FD822373FFF1017297A081AA30D5
:105E080039F0C6DF082A192A0128D9F70895C0DF12
:105E18000097E9F78881998110E306E0809FF001F7
:105E2800909FF00D111D09EBB0E8909FB00DE11D9A
:105E3800F71D171D0DE8909F0894E01DF11D171D13
:105E4800809FB00DE11DF71D171D00E3AAE0EA9F32
:105E5800C001FA9F900D011DBA9F810D971D071D66
:105E68008A9FF0019A9F90E3F00D911D80E3EA9FCD
:105E7800B12DFA9FB00D811DF0E3BA9F1F0EF101FD
:105E8800A191B1911E928394103381F410171907D0
:105E9800180791F08E9383941017190769F09E9351
:105EA8008394101749F00E93839406C08E939E93A3
:105EB8000E931E9304E0800EB293A29308955AD8CD
:105EC80084736B6970FF082F89919991E991F99111
:105ED800019730F011911930D9F31017C9F33197A0
:105EE8000196FA93EA930895BCE3847363616EFFA5
:105EF800082F89919991E991F991019788F3119166
:105F0800193069F31017C9F7EACF8EF08932766134
:105F1800726961626C6514E032CF30DFA3383C3CB3
:105F2800982F80E0089562DCA3383E3E892F90E0E8
:105F38000895ECD8A23E3CFF082F892F902F089592
:105F480002EEA5666C6173687ABC0895E6E6A665FC
:105F58006570726F6DFF02E00ABD08959EF8A37226
:105F6800616D04E00ABD0895B8D9A26470FF9A93E0
:105F78008A938AB5992787549D4F089512E38468B8
:105F8800657265FF9A938A93EAB5FF27E754FD4F38
:105F980081919191089594D78363662CDC010091D7
:105FA800B9021091BA02B03F08F0BF77A01BB10B3D
:105FB8001AF4A095B0951196AC3FAFE0BA0748F037
:105FC8009058969587959A938A938EE094E9D1D7BD
:105FD800D0C7801B910B0297959587959F70906D00
:105FE800C8C712E0A53264726F70229689919991A0
:105FF80008951EDAA432647570FF088119819A9396
:106008008A931A930A930895BADA8532737761707E
:10601800FC01A991B9918991999109911991BA9322
:10602800AA93FA93EA931A930A930895B0EF8573A3
:106038007061636500E252C70ED88673706163654C
:1060480073FF019730F0F6DFFCCF9EF1A464726F06
:1060580070FF899199910895F0D9A473776170FFC1
:106068008C01899199911A930A930895DCECA47094
:1060780069636BFF880FFE01E80FF71D819191910D
:10608800089576E0A46F766572FF9A938A938A8161
:106098009B81089530F6B23E72FF8F939F9389914A
:1060A80099910895BEE0B2723EFF9A938A939F91A8
:1060B8008F91089588E1B27240FF9A938A93EDB761
:1060C800FEB78281918108955CDAA3616273992396
:1060D8001AF4809590950196089554ECA12B099196
:1060E8001991800F911F0895F8EF85616C69676EAB
:1060F80049DF01968E7F87C7FED7A5737761702D1C
:1061080009911991801B910B089598EE866163633C
:10611800657074FF0C0188819981080E191E0E9410
:10612800B83ED10119978D30A9F08A30B9F08F3770
:1061380011F08830D1F47C92899199910881198164
:10614800081B190B61F30197BDD7030820080E94AB
:10615800C438E5CF8C9389919991D2CF899199913F
:106168000C91002369F27C92DACF082FB7D6A99157
:10617800B9918D93CD010816190689F6C1CFD8EFCC
:10618800D27322FF7AD3CCF07ABC04D0EACEA2EF45
:10619800822C22FF9A938A9382E269D1F3DE75DF1B
:1061A80002968E7F28D790C54ED8A37370408E0173
:1061B8009A938A93C8010895EEE4D465786974FFC8
:1061C800BDC672DC8677697468696EFF099119919A
:1061D800A991B9910A171B0709F010F4A817B90774
:1061E800880B990B08953CDFA23C3EFF0991199159
:1061F800801B910B08952CE2A13D09911991801BF8
:10620800910B0197880B990B089500E2813C099145
:106218001991081B190B0BF41095110F880B990B8A
:1062280008957AFA813E09911991801B910B0BF41C
:106238009095990F880B990B089558E2A2753CFF29
:106248000991199108171907880B990B089502E30A
:10625800A2753EFF0991199180179107880B990B38
:10626800089554E3A22170FFAC0189919991089592
:1062780081D688E591E07DC6DAD78FE493E979D6AF
:106288009A938A938FE593E974D602E010E476C670
:1062980010E471D6DECEB4DCB421703E72FF4F93A9
:1062A8005F93AC0189919991089566DFB3723E704E
:1062B8005F914F910895C8DBA33E70729927803291
:1062C80008F087FD8EE20895EEE3A12D099119915A
:1062D800081B190BC801089592DCA36E69702296F9
:1062E800089582F1A47475636BFF099119919A93CB
:1062F8008A931A930A93089534D8A27570FF9A93D3
:106308008A9382E090E0089558DD84686F6C64FF9A
:10631800082F89919991F101A191B1910E938394DC
:10632800B293A2930895F0E1823C23FFF4DAF101DD
:10633800118300838824089510EFA5646967697440
:106348008A3008F0895D805D0895FCDD82233E0077
:106358002296F101819191919A938A93882D0895BB
:10636800AF93BF9357DD9F9110E39711192F8F912A
:10637800881989F120F4A81BBF4F880E04C01E930A
:1063880083948A95E1F7A193B19325C0D2DA8375F6
:106398002E720C0188279927C9DFD00172970081D6
:1063A8000A30F1F203C0AF93F3DCAF91A150D8F7F4
:1063B80012C0C8DE847369676EFF97FF4ACE8DE20C
:1063C800A7CF14FC82752EFF39D3B0DF15DD0DE29F
:1063D80074FDA1DF7F7EBCDFD3D62CCEC6FB8375D0
:1063E800642EF3CFE0FC812E992372F770618095BB
:1063F80090950196E9CFA6F582642E0099232AF795
:1064080070610E94703AE1CFD8DC88636F6E737454
:10641800616E74FF706402D500D59A938A938EE2F8
:1064280094EECBD7A2C577FD0C94953C089514DF64
:106438008932636F6E7374616E7412DEEFD4EDD4BB
:10644800ECD493C5B2F78475736572FF7062E6D4B5
:10645800E4D467779A938A9388E694EEAED785C595
:10646800820D931D089510FB857061727365F101AB
:106478003897A191B1919A938A93819191910191C1
:106488001191A00FB11FFD01801B8F93088120DDA2
:106498000F01249632DD09F00197E019F1091982FC
:1064A80008820F91081BCF01F1013497A191B19196
:1064B800A00FB71DB293A2930895000084776F725E
:1064C80064FFD5DFE991F99182938823CF0108957C
:1064D800AEF386696D6D65643FFF0E94473D982E57
:1064E8008074089586DF8466696E64FF9A938A9340
:1064F800FC0101918AEA9AEF033030F088E39BEEC1
:10650800053010F082EA9CED15D359F78091BF024F
:106518009091C0020FC336E5837469239A938A93D6
:10652800F1013E978191919108963CC552DCA37484
:1065380069629A938A93F101709781919191089574
:1065480064ED873E6E756D626572F1017297B08079
:10655800A991B991A62C882E89919991882009F141
:106568000D910E32D1F00A3318F00136C8F00752F7
:106578000053B0F00B15A0F4FC01EB9DC001FB9D8E
:10658800900DE9911991EB9DF0011B9DE00FF01D15
:10659800811D971DFA93EA93A72C8A9409F709F0AD
:1065A80011979A938A93BA93AA93882D99278A0D5B
:1065B800089586D8C1280DD4290059DF6F7B15CDE1
:1065C800DEDAA2322DFF029708958091C3029BB5AF
:1065D8008095909501969BBD04D010E40CC08091E5
:1065E800C30225D6982F92958F709F70089510E753
:1065F80001C010E6F4DF8068812E982995FF90612C
:10660800B8D49A938A938BB5EDDF80699829B1C481
:1066180010E4F0CFC6FAA2626CFF9A938A9380E2E4
:1066280090E008959A938A9380E24BCFA3D48AEF9F
:1066380092EEC3C69FD404961BB51711BEC602E0DE
:10664800F7D54497BAC688960496449715D06160E2
:1066580008E065FD0CE010E08FD4AFC680969A93F1
:106668008A93D6DF6160A9C607D0D2DF64619A93A6
:106678008A9384E99BEDA1C66F7DC2D30C9792D40F
:106688008A59934909F46062E4CCF6DF8091C30229
:106698009BB5CDC56FD4A0E12CD22AC2F6DF9A9360
:1066A8008A93019663FDF6CF65FDBDD5A0E921D299
:1066B80005C0EBDF63FD0DC065FDB5D5A0E819D2B7
:1066C80065FB16F46F7D08959A938A938AE590EE98
:1066D80074C650D402E0ACD50BC2C2CCDAE48669E9
:1066E800666C757368FFF199BAC4089500008969EA
:1066F8006E7465727072657409911991D101189759
:106708000D931D938D939D93899199917D927D927F
:1067180089DF09F49ECCEADE8991999109F487C052
:1067280012F477FD12C094FC77FD09C0CBD40C435A
:106738004F4D50494C45204F4E4C59FF24C360647F
:106748000E94C53E66FD6274E3CF6E7E1BED843900
:10675800910711F4606161C067FF59C017EDE73612
:10676800F10750F0E6EAF7E6A1E2059115918017E6
:10677800910719F0AA95C9F74AC0A73018F4FAD3B7
:1067880004964BC0AB3020F41BB51930A8F73897E6
:10679800E05CFF4F05911591F801099546C060DA54
:1067A80070DAE6E0D4E288D8F4E102E248E25CE29A
:1067B80016E22EE268E0F0D870E2A6E2FADC14DD18
:1067C80048DD30DD42DB74DB58DB66DBACFACAFA45
:1067D8007CFA8EFA80DA36DA4CDA3EFD22FD86FB48
:1067E800FB32FD32E9320C331E330C333833273396
:1067F8002833323329331A333C314C314031713527
:1068080058353C35273552335D33AE3CB23C6F7D4D
:106818001BED8838910709F4606295FE02C0CDD55A
:1068280004C0BCDB6D7F94FC6260677771CF627CCB
:1068380031D0009771F077FF09C0082F899199919D
:1068480001FF02C00DDCE9D2E8D262CF89919991AB
:10685800ECCF677789919991B0D0EFD691D486C261
:1068680083286329FF91EF919A938A93EE0FFF1F74
:1068780085919591089583282C29FF91EF91F4DF54
:10688800F795E795EF93FF9389CB22D8876E756DBF
:106898006265723F9A938A937A927A927A927A92FE
:1068A800DC018D9199270C910B5221F0023011F0E7
:1068B800002702C0019711960F93F1017297B080DB
:1068C8000C91035221F0023019F028F40B5F065F97
:1068D800B02E019711963EDEA9F422968E918E3243
:1068E800899199910F9131F40711F6D5D6D782E0A5
:1068F80090E00895899199910711C1D69983888369
:10690800C30108950F912696882799270895B8F806
:1069180083766572D7D325204F707469466F727479
:106928006820352E36642041546D656761333238EE
:106938002031302E30312E323032320D21C4D6F291
:10694800832E73740CE3CAD2F1017297108104E2AA
:10695800103139F003E21A3021F00FE310F4105D22
:10696800012FBCD20CE2BAD29A938A93EAB5FF27D8
:10697800E259F84A8591959160D68F7001D40EE35B
:10698800ADD2E9C3833E6470E9E0F0E0A1ECB2E087
:10699800F999FECFF2BDE1BD6FBA00B51E9101179E
:1069A80039F010BD0FB7F89414E01FBBF99A0FBF68
:1069B800E15070F708958364703EE9E0F0E0A1ECDF
:1069C800B2E0F999FECFF2BDE1BD6FBA10B51E93E2
:1069D800E150D0F708957EF6866C7368696674FF97
:1069E800FC0189919991319722F1880F991FFBCF6A
:1069F800AEF986727368696674FFFC018991999192
:106A08003197BAF096958795FBCF56DF866469670C
:106A180069743FFF8A3318F0813680F087528053BB
:106A280068F09A938A93F10172979081891B880B79
:106A3800990B08954ADFA566616C73659A938A93EA
:106A4800882799270895F3D363FF09C0F0D3CF01AE
:106A58000496A8D29F7090678F701DD08EC71BD0E8
:106A680080E893E28AD79A938A938AE590EEA5C440
:106A7800DED363FF09C0C4D1049794D29F70906796
:106A8800D2D3A0E809D005C006D09A938A9380E8AB
:106A980093E273D764C7A0E0617F9A938A93809149
:106AA800C3029BB5E89426C0F0DD63FF0AC0A8D1F5
:106AB800049778D29F7090678F700FE08027902797
:106AC80014C09A938A9388E093E29A938A9380E811
:106AD80095E9E1DF52D70BD0F7CDD7DD63FF20C0B2
:106AE8008FD10497C7D79F778F70A1D3D4DF45D7AD
:106AF800A0E068948036970560F4803250F08052A8
:106B0800982F8F70907F9295990F916B93F98A2B9C
:106B180034C79A938A938A2F91E991F92ED72DC772
:106B28009A938A9388E09BE2B6DFE1DFCDCDB0F09F
:106B380083286629A881B9810C0126D069F0F00163
:106B48003297F058FD1103C068944BD702C0859165
:106B58009591009779F708953196EE7FF058F9836B
:106B6800E883902E019796FC02960895ECE2A474AF
:106B7800727565FF9A938A938FEF9FEF08956CDA89
:106B8800826E3DFFA991B991FC01F058FD1104C036
:106B9800E89427D7F05801C08591082F8F709D91F0
:106BA800891751F7FD1104C0E8941BD7F05801C0AC
:106BB80085911D91811B01F79A95A1F70895CCE164
:106BC80086756D2F6D6F64FFDC0189919991E8D00E
:106BD8001A920A92089596E383752A2F5C01899187
:106BE80099912FD5BA93AA93CF01D501D9C0C2EDF7
:106BF80086752A2F6D6F64FFF1DF1A920A92089545
:106C0800F2F685636D6F7665E991F991A991B9916D
:106C1800F93010F4B930B0F04F935F93AF018D01A4
:106C2800DC01C80108C0AF93BF9307D536D7460D1E
:106C3800571DBF91AF911197B0F75F914F9109CA56
:106C48000D9101930197E0F704CAD2E2812C9AD9F9
:106C5800029692938293029725C78AFA82632CFF41
:106C680091D901969293829301972BC7E2E2836EA2
:106C78003E6309D78F70E80FF71D3196EE7FCF017D
:106C880008953EF683633E6E0EEF89D10E5F87FF4F
:106C980021F09F3758F4903248F08F3739F050F48C
:106CA800803220F0899199910E3079F7229687E009
:106CB800992708958F70D1F38E7F8017B9F7C9C9C6
:106CC80000DC85706C61636598D9FBD60196C8D9DC
:106CD8009BCF9ED78471756974FFF1017A97A19152
:106CE800B1910FB7F894ADBFBEBF0FBF7F7704E077
:106CF8000ABD63DEF1017C97A191B191AC17BD0784
:106D080028F0A191B191AC17BD0720F0DBD1035356
:106D1800503F39C0E2D00DDC9A938A93FFDB0A9783
:106D2800F9D988D9E9DC77FDE5CFDDDC2DDECAD1DC
:106D380003206F6B25D206D0DCCFA0F38670726F6C
:106D48006D7074FFDCD40A0972F38561626F727426
:106D5800F1017C97C191D191C0CF6AF6873F6162FA
:106D68006F72743F009789919991C9F463D90FE3C1
:106D7800B5D0EECF18EE863F61626F7274FF0A815C
:106D88001B81012B19F456D9FBD1E2CFF3C114E1D1
:106D9800D661626F727422FFF5D96FDD86ED0895B2
:106DA800009731F038D7FC0189919991689436C7DA
:106DB800FC01899199912FC7C8EB8675642F6D6F77
:106DC80064FF02DF9A938A93CF0108951EFD836CB6
:106DD8006974FF91EF9148DDF795E7950994BCE553
:106DE800812720DC83DBBECF06F58463686172FFF0
:106DF80014DC3DDB2ED947C638F4A5696865726591
:106E08009A938A938091B9029091BA02089598ED65
:106E1800D65B636861725DFFEBDF83C503DC66DB0D
:106E280069F0882799277F794DD10F414C52454108
:106E3800445920444546494E4544A1DFE881F9813B
:106E48008081882311F0803108F08CDF8091BF02A7
:106E58009091C00292D5F1D348DAE091B902F0914D
:106E6800BA02F093C002E093BF023196FA93EA9314
:106E78009A938A938068072F0076802B7F793197C1
:106E8800E89414D6C1DE02968E7FEE27B5C014EAC8
:106E980086637265617465FFC1DF9A938A9386E39E
:106EA80094E391D86FD80AB5002309F4029665C512
:106EB8007ADDD8706F7374706F6E65FFB3DB16DBA5
:106EC80009F450DF9923899199911AF4D6DC82E864
:106ED80050C064C824F5826372FF0DE09A938A93C8
:106EE800802F38C78728646F65733E299A938A93E1
:106EF8008091BF029091C002BCDE0296FC019F9176
:106F08008F916894D3C59AF7D5646F65733EB5DCE5
:106F1800F4EEB3DC92F608956CE2A15D7068089512
:106F280040EF813A70687ACF4AE5873A6E6F6E61B2
:106F38006D6566DFF3CF14E2D13B7F7761FD15C045
:106F48005FDF2DD08C01107F105D41F08991999100
:106F580026D094398E4039F48CE001C09F7EE991A7
:106F6800F99168944BC5229602C09A938A9388E057
:106F780095E903C510E008E05BD1025041DF800FBE
:106F8800971D78D58F71812B9A938A93349773D5EF
:106F98008F71812BF2D4F1C410DA822D40FF029751
:106FA8009A938A9367C502E1A573746174659A938D
:106FB8008A93C30177FF88270895E0E9A66C617476
:106FC800657374FF9A938A938FEB92E0089524F780
:106FD800A27330FF9A938A93C1014C970895AEE04B
:106FE800A27230FF9A938A93C1014A9708951AF3BF
:106FF80085616C6C6F74EAB5FF27E754FD4F01910A
:107008001191800F911F9293829355C5EEF88232A9
:1070180040FF30D59A938A932EC5B2E18373686294
:10702800182FE091BF02F091C0022ED53197812B25
:10703800E8943CC5F093C202E093C102F1990FD0E5
:10704800E091C102F091C202E0786F01A0E0B2E0E5
:1070580015911D93A038E1F7E091C1020895F999BF
:10706800FECF4F93A0E0B2E0A7D74F910FE7A0E083
:10707800B2E005901D9001109FC30150D0F7F19820
:10708800D02E0895F6E689696D6D65646961746549
:1070980010E49A938A93C5CF22F987696E6C696E5A
:1070A800656410E2F6CF48E9832E6964C6D28F7012
:1070B80067C0C6DA823221FF18D90296F3D4F2C427
:1070C80083287322FF91EF91EE0FFF1F05919A938A
:1070D8008A93CF0190589A938A93802FE00FF71DD7
:1070E8003196F695E795099434F385776F72647352
:1070F800F4DE98DA09F478609A938A938AEA9AEF28
:107108000DD088E39BEE0AD082EA9CED07D08091EF
:10711800BF029091C00202D0777F56C173FD0FC0A5
:10712800FC01F058A881B9810D9115911F701017B5
:1071380050F00D901590011431F40A95D1F79A93F7
:107148008A93B4DF4AD9029795D4009739F7C5CE08
:107158009EDB822E73FF41D99A938A9328D83ADF0F
:1071680089D40297088119810817190718F417DFBD
:107178002BD9F8CF24969FC446DA8474797065FFBA
:10718800882E89919991882021F057D2E3D58A9445
:10719800E1F791C4E2F28464756D70FF04E096959E
:1071A80087950A95E1F7F1017297A081A03108F45B
:1071B8007860DC0189919991AF93BF938EDE9A93A1
:1071C8008A939A938A93992784E073FD8395E1D8EB
:1071D800AFE0AF9332D29A938A93992782E073FDF6
:1071E8008395D7D8AF91A150A0F7409700E1802EA2
:1071F80024D264D8AFD58A94D9F7BF91AF911197AB
:10720800D8F6777F8DE0A6C5842C3F303DFF9A9352
:107218008A9365FD03C086E099EDCFC004D080E075
:1072280097E96F7DAAC304E003C006E001C008E047
:10723800A9EBB2E0ED91FD91E01BF709FE93EE9307
:1072480008959A938A9389E094EF64FD9B7F95C390
:107258000CF7D26966FF07D06A7ED2DD9A938A93CB
:1072680080E090EC8AC360FD1FC065FD62FF18C016
:107278009A938A9389E090EFC3DD0A97FBD39F70B6
:1072880090639A938A9381E194EF9A938A93F3D3C4
:107298009F7090630EE0CCDF70D36FD36ED36DC355
:1072A80064FDC3DFB4DFCDCF65FF06C09A938A9330
:1072B80088E090EFB8DF61C3B6DF9A938A938CECCD
:1072C80092EF7BC08991999108F0089524DFD3301B
:1072D80069666061B6DFC1CF56FDD4656C7365FF22
:1072E800BCDFFBD904C076EBD47468656EFF0EEF83
:1072F8001FEFFC018091B9029091BA028E1B9F0B7F
:10730800800F911F959587959F70906C626029CE2C
:1073180074D9D5626567696E73CDE0F6D5756E74FC
:10732800696C6260A0DF6A7E23C07EFBD630756E12
:1073380074696CFFA62D6F7E62600091B902801B94
:1073480082508E7F9070880F991F880F991F8A2B03
:10735800946F64FD9B7F11C37EEDD631756E7469A1
:107368006CFFA62D6061E8CFF2E0D5616761696EB8
:1073780062600091B9021091BA02801B910B0297CA
:10738800959587959F70906CF8C2F2F0D5776869EB
:107398006C6561DFA2C9FAE9D6726570656174FF30
:1073A800E7DFA5CF8CDAD6696E6C696E65FF667407
:1073B80018DD03C06CFD83696E2C38D115E988305F
:1073C800910711F0DAD2F9CF229675C3F2FBD36692
:1073D8006F729A938A938CEF93EF67FF04C0677775
:1073E80010EAC9DD0696E9DF0BDD04979A938A93C4
:1073F80002970895DC018991999100C0AF93BF93DA
:10740800089572DFD2646FFF9A938A9380E294EFB3
:10741800D4DFF6DC08970895DC01899199918C01F5
:10742800899199910F931F93AF93BF9308952ADD84
:10743800D56C656176659A938A938AE594EFBDDF8A
:10744800F39AE7EBF2E0A281B3811297B687A5879A
:1074580008950F910F910F910F9100C008950EDDBF
:10746800D46C6F6F70FF9A938A9382E994EFA5DFCB
:10747800F39B7ECFF3989A938A938091C40290915C
:10748800C50200E010E035DF73CFBF91AF911F91C7
:107498000F9111960A171B0708F008958CE0D46E17
:1074A800657874FF02E010E024DF9A938A938CECED
:1074B80094EF83DF0091B9021091BA02801B910BFF
:1074C80002975ECFBF91AF91119708F0089582FDA2
:1074D80087646E65676174650991199106191709C2
:1074E8008709970942C012E4883F646E6567617432
:1074F80065FF990F8991999178F3089554E0846410
:10750800616273FF97FDE8CF089554DB826D2BFF0E
:107518008C01990F880B990B05C044F582642BFFE9
:1075280009911991E991F991A991B9910A0F1B1F34
:107538008E1F9F1F1A930A93089500E482642DFFFB
:1075480009911991FC0189919991A991B991A01B6F
:10755800B10B8E0B9F0BBA93AA930895D8F4A76426
:10756800696E7665727409911991009510958095E8
:1075780090951A930A93089502DBA364303D09910C
:107588001991892B802B812B0197880B990B0895D2
:10759800BCF582643DFFD4DF019707C09AF5826489
:1075A8003CFFCEDF0BF49095990F880B990B229630
:1075B8000895C2D982643EFFC3DFB9F3ABF39BF7EA
:1075C800000086666F72676574FF2CD8FBDC52D2A8
:1075D800B1DAC8DB59DB02979A938A934BD2C2DBA4
:1075E8009093BA028093B90245D2ECDC5BC2CAF52B
:1075F800866D61726B6572FF7ABC4EDCEADB00094E
:10760800FFDB0ED0FDDB0A969093BA028093B90295
:1076180004E00ABD6DDC39D09A938A9387EB92E037
:10762800D8DB0A00F1CA38DC82402BFF23D2FA9358
:10763800EA930895A0DF8363402B25D2FA93EA9357
:10764800089509911991809FD001919FF001909F11
:10765800B00DE11DF71D819FB00DE11DF71D0895C7
:1076680064D9873F6E6567617465990F89919991AF
:1076780030F0089544EDA66E6567617465FF8095E6
:1076880090950196089583286429BF91AF91FF9141
:10769800EF91EAD8FD0109943FB70F930091C60016
:1076A8000F3009F4A9C3E091B602E39561F0E093C5
:1076B800B602E091B402F1E00193E093B4020F91B5
:1076C8003FBFF2011895FCE743D0F9CFD2E0D35B76
:1076D800275D87DB26C194F38576616C7565DCDBF5
:1076E800B6DA04DCD2DFC6C142E38564656665723A
:1076F800D3DB9A938A9388E59DEEA9DAF7DBC5DF99
:107708004AC33EDBC26973FF6CDB0496B3D177FFD3
:10771800C9C107D1B2D8ACFA0895CCE3C2746FFFDF
:10772800F3CFF0F4877475726E6B65790E94763BBF
:10773800B702E0EB837478307460E9D19091C000AF
:1077480095FFFBCF8093C600899199917B7F08951F
:10775800E091C000E5FFFCCFF093C60008950EDC71
:1077680083727830D4D10FB7F894A091B602A150A3
:1077780010F40FBFF7CFA093B602A091B502B1E005
:107788009A938A938D919927A093B5020FBF089574
:10779800EEDB85656D7074791CDB86D71ADB000912
:1077A80018DB0C0031DA09C9C4E4847761726DFF13
:1077B800E894DD2704B6D4BF1FB6F894A2E0B0E081
:1077C800DD93AA31E9F700916600ACE17D92B9300A
:1077D800E9F700936600DA94C0E6D3E002E213E02A
:1077E8000DBF1EBF639474D002EE12E01801F1DAE7
:1077F80074D7EFDAC602EDDA140006DAE0E0F9E051
:10780800689411D1019609F4C7DF65BEF2E0F5BFAF
:10781800F4BD03E005BD09EF07BDF0936E0000E578
:107828001BE31093A5020093A40200E10093C40097
:10783800F093C00008E90093C10006E00093C2007D
:10784800BCD8789400E202FC02E403FC07E501FCE2
:1078580005E400FC00E516FC0DE440DB5BD8259A46
:107868002D98F999FECFF3010FEE002E19E0F9D209
:107878005DDF009771F026DC0673746172743F0057
:107888007FDC80ED97E036D175D2009711F44EDF9A
:1078980078D25ECA42D983726F74A991B99109915D
:1078A8001991BA93AA939A938A93C8010895D4F820
:1078B8008377642BF894A8958770886098E19093F3
:1078C8006000809360007894F6C0ACDB8377642D09
:1078D800F894A89574BE08E1009360007092600067
:1078E8007894089530E3C23B69FF73DA0C9445D06D
:1078F80070DAD13E7F7741C076FD84696E7421FFCE
:107908008150880FE0E8F2E0E80FF71D899199911E
:10791800905896958795CDC094E8C76C6974657240
:10792800616C9A938A9388E89BED47DD67FD6860F0
:1079380060686E788093C3029BBD9A938A93982F50
:1079480010E802D0892F10E992959F708F70906E81
:10795800812B13C007D00196A0E9A4C803D080E901
:1079680090EE0BC060DC8091C3029BB59A938A931A
:10797800A0E898C85AF282692CFF689402E0F2994C
:1079880021C0A9EBB2E0ED91FD91E00FF71DFE9348
:10799800EE93E01BF70932C0BEF38369632CE894C9
:1079A80001E0EDCF42E086736F75726365FF9A93CD
:1079B8008A93F1013897819191919A938A93819151
:1079C80091910895C8DB7EDB0341443FD9DBC0C9F0
:1079D800EC2585910EF49591F0580895F058FD1115
:1079E800F8CFEC25AAF3F2E080810EF49181EC2522
:1079F800FD2D31960EF43196F0580895F058E8367A
:107A080017E5F107F8F6FD1519F4EC251AF4EC253D
:107A180011DBEF77F2E00EF491838083F19A4BC08B
:107A28006894F038D8F6F999FECFF950F2BDE1BD67
:107A38006FBA80B531962EF4F2BDE1BD6FBA90B53C
:107A48003196F75F0895F299BDCFF038B8F6F9503E
:107A5800F999FECFF2BDE1BD80BD0FB7F89484E07F
:107A68008FBBF99A0FBF3EF53196892FE894F0CF76
:107A78009ED88140FC01F93098F681919191089542
:107A8800DEEE826340FFFC019927E894F93048F65E
:107A980081910895D0FA83706321E894FA0106C0B1
:107AA80096DD81216894FC0189919991F93058F605
:107AB8000EF49183808389919991089564EC82638F
:107AC80021FFE894F0CFE4DB837063409A938A93B4
:107AD800FA01DACFE8EF827040FF9A938A93FA01AD
:107AE800CACF86DC827021FF6894FA01DFCF88EB69
:107AF800826D73FF8701800F911F09D087010817D6
:107B08001907D9F7D8CFCAEC857061757365F1018B
:107B180071FF0FC0E23E69F4F23059F40091B602E9
:107B2800002339F463BE08EB72FD0093C100889509
:107B380073BEA8953C97A191B191A215B305C9F060
:107B48001FB7F894DF93CF939F938F935F934F93CF
:107B5800F1010EB702930DB702931D010E910EBFEE
:107B68000E910DBF4F915F918F919F91CF91DF91B2
:107B78001FBF089562F386313032342A2FFF0991EE
:107B8800199161DDF695E795B795F695E795B7955F
:107B98008B2F9E2F871D971D0895E6E38375642A12
:107BA8008C01899199914FDD5D01899199914BDD06
:107BB800BA93AA93C5018E0F9F1F089518E983757C
:107BC8006D2A3FDDBA93AA93CF010895DED9857552
:107BD8002F6D6F641DD01A920A92089576EC836D0A
:107BE8006F6416D0C0010895EAD78367636409916A
:107BF800199180179107B9F318F4081B190BF9CFDD
:107C0800801B910BF6CF6894D4CD44E282752FFF88
:107C1800DC018991999100241124E89408E0BB23A0
:107C280069F5AA2381F39EF0992389F48A1710F144
:107C380021F4C30108950A9549F0880F001C10F03B
:107C48000A16C8F30A1A83950A95B9F70895880F92
:107C5800991F001C10F00A1610F00A1A8395880F55
:107C6800991F001C10F00A1610F00A1A83950A953D
:107C780071F708950C018827992708959EF08A17AF
:107C88009B07C0F3B1F2092E9927880F001C111C1D
:107C980018F00A161B0618F00A1A1B0A83950A958B
:107CA800A1F70895880F991F001C111C18F00A16D7
:107CB8001B0618F00A1A1B0A8395880F991F001CC7
:107CC800111C18F00A161B0618F00A1A1B0A8395CD
:107CD8000A9541F708952AEF812FDC01899199913E
:107CE8000B2F09270F9397FDCADCBB231AF4A09525
:107CF800B095119690DF0F9107FDC1CC089598E1DA
:107D0800822B21FFB7DE329709911991800F911FBD
:107D18006894CCCE70DB836D617809911991F80174
:107D2800F927F80112F0E81BF90BF7FFC8010895CD
:107D3800E6FB836D696E09911991FC01F127FC013D
:107D480012F0E01BF10BF7FFC8010895C2E184654A
:107D58006D6974FFA8EEBFEFA20DB31DED91FD9103
:107D680013C0D6ED836B6579AAEEF5CF68F4846B02
:107D780065793FFFACEEEFCFA2F087657865637554
:107D88007465FC0189919991F058F695E7950994E5
:107D9800D6F6834065786EDEF4CF1F910F91FF9180
:107DA800EF913FBFD2011895FFFFFFFF2F01E09130
:107DB800A402F091A50209943FB7E60CF71C3FBF57
:107DC80018952D01EF93FF930F931F93A32FB2E004
:107DD8003FB7ED91FD910994FFFFFFFFFFFFFFFF04
:107DE800FFFF36E9EECFFFFF38E93093C100189561
:087DF800FFFFFFFFFFFFE0CCDD
:00000001FF
