:020000020000FC
:10572A0029D7FF0CFF087EDD8ADD9ADD6403270393
:10573A0002F62EF674F60A0068031CDBE602000085
:10574A0000800C09C20356F47EE726FA837061646E
:10575A00F10170979A938A93019111918191919194
:10576A000896FC01F05885919591800F911F089534
:10577A00F4D7C15B7F770895ACEFD22E22FF25D4F0
:10578A00EED7DAEF08952AF6B37270409A938A93A5
:10579A008DB79EB70895F6EBA463656C6CFF9A9378
:1057AA008A9382E090E008955CF9A7616C69676E5C
:1057BA00656401968E7F0895D0D7A563656C6C2BBE
:1057CA0002960895DED7A563656C6C73880F991FDE
:1057DA000895EAD7A5636861722B0196089522EAB3
:1057EA00A56368617273089528EDC15CF10136976B
:1057FA0001911191019311936F7B089554DAA26577
:10580A0069FF7894089546F2A26469FFF8940895AE
:10581A00B2E9A572736176659A938A93C101029778
:10582A00089574F1A5756C696E6B9A938A93C10198
:10583A000C97089540F1A47461736BFF9A938A934D
:10584A00C1010E970895EEF8A26870FF9A938A93A1
:10585A00C101089598DBA462617365FF9A938A93E4
:10586A00C101429708958EE2A4756D696EFF099190
:10587A0019918017910708F0C801089572D8A47584
:10588A006D6178FF099119910817190708F0C80185
:10589A000895FEEDA5737761702D09911991801B0A
:1058AA00910B08957CF9A3616E6409911991802383
:1058BA009123089588FAA26F72FF09911991802B9A
:1058CA00912B089518DAA3786F720991199180279C
:1058DA0091270895CAEDA6696E76657274FF809560
:1058EA0090950895FAD8A2312BFF01960895BEEE3D
:1058FA00A2312DFF019708952AE4A2322BFF0296C6
:10590A00089556EBA53E626F64790496089504D90A
:10591A00A2322AFF880F991F089522FBA375322FFE
:10592A0096958795089568EEA2322FFF95958795EB
:10593A000895AED9A364322F099119919595879547
:10594A00179507951A930A9308953ED9A364322AA4
:10595A0009911991000F111F881F991F1A930A9311
:10596A000895E0F3A364303C2296990F880B990BB3
:10597A00089588D9A3666C2DF29A089510F2A36649
:10598A006C2BF298089594FAA26D40FFFC01819164
:10599A0091910895B2FCA36D6340FC01819190E05E
:1059AA00089522DDA36475709A938A930895F0D8B6
:1059BA00A2303DFF0197880B990B0895BAD9A230FE
:1059CA003CFF990F880B990B089500DA83783E7291
:1059DA00FC01899199919058969587958083929325
:1059EA007292CF01089512FDA33E78619058969560
:1059FA0087950895D0D8A378613E880F991F90584B
:105A0A000895EEE08370666C9FD60080DAE0837AB0
:105A1A00666C9AD6000012E8B5656E646974FEB7C2
:105A2A00EDB77182728208951CD8B57264726F7074
:105A3A000F910F91089576EEA3733E649A938A9319
:105A4A00990F880B990B089552D8826869FF9A9327
:105A5A008A93EAB5FF27E65DF84A859195910895FC
:105A6A009CF4A24070009A938A93CA01089556D76B
:105A7A00A370322B4E5F5F4F0895FEF5A3746975CC
:105A8A009A938A93C1014097089502E1A33E696EF1
:105A9A009A938A93C101049708953AF9A727736FD5
:105AAA00757263659A938A93C101089708957AFA81
:105ABA00A2702BFF460D571D08957ADAA3702B2B7F
:105ACA00480F591F899199910895FADAA527656DAA
:105ADA0069749A938A93C1014897089538DEA42776
:105AEA006B6579FF9A938A93C1014697089528DED8
:105AFA00A5276B65793F9A938A93C10144970895C4
:105B0A00BEEC886F70657261746F72FF0E94A93370
:105B1A001CDBE6020000400040005A0076DBA46D60
:105B2A00736574FF09911991FC018081802B808330
:105B3A0089919991089528DBA46D636C72FF09918C
:105B4A001991FC0180810095802380838991999124
:105B5A000895B0E2A56D7473743009911991FC012E
:105B6A008991999110811023089504F3A46D747397
:105B7A0074FF09911991FC018081802390E00895B6
:105B8A0070F8A469646C65FF72600895A2D7A46274
:105B9A00757379FF7D7F0895ECEB8123F10172978C
:105BAA00A081E881F9810E2FA230F9F0A03189F0A5
:105BBA00BB270027E82BF92BEF2BF9F0F2D7002DA2
:105BCA000C019A938A93CF010A300CF0095D005DAB
:105BDA00C2C296958795F795E79596958795F79515
:105BEA00E79596958795F795E79596958795F7950D
:105BFA00E795AA950A23F983E8830F01E5CF80FC8C
:105C0A00822373FFF1017297A081AA3039F0C6DFAF
:105C1A00082A192A0128D9F70895C0DF0097E9F759
:105C2A008881998110E306E0809FF001909FF00D32
:105C3A00111D09EBB0E8909FB00DE11DF71D171D6E
:105C4A000DE8909F0894E01DF11D171D809FB00D6F
:105C5A00E11DF71D171D00E3AAE0EA9FC001FA9FA4
:105C6A00900D011DBA9F810D971D071D8A9FF00196
:105C7A009A9F90E3F00D911D80E3EA9FB12DFA9F60
:105C8A00B00D811DF0E3BA9F1F0EF101A191B191F0
:105C9A001E928394103381F410171907180791F094
:105CAA008E9383941017190769F09E9383941017A3
:105CBA0049F00E93839406C08E939E930E931E937F
:105CCA0004E0800EB293A2930895D8EE84736B69B0
:105CDA0070FF082F89919991E991F991019730F014
:105CEA0011911930D9F31017C9F331970196FA9324
:105CFA00EA930895FCE1847363616EFF082F89912A
:105D0A009991E991F991019788F31191193069F301
:105D1A001017C9F7EACF7ED98346637915D5803E35
:105D2A0078E2887661726961626C65FF12E043D03D
:105D3A000027180F091F029312938BC290EE893223
:105D4A007661726961626C6514E0F1CF64DDA33833
:105D5A003C3C982F80E0089596DAA3383E3E892F7E
:105D6A0090E008958EF4A23E3CFF082F892F902FD1
:105D7A00089506ECA5666C6173687ABC089500F70D
:105D8A00A6656570726F6DFF02E00ABD08958AF616
:105D9A00A372616D04E00ABD089508D8A26470FF79
:105DAA009A938A938AB5992784549D4F089554E10A
:105DBA008468657265FF9A938A93EAB5FF27E4546B
:105DCA00FD4F819191910895F6F68363662C9A931B
:105DDA008A930091BC021091BD02903F10F09F700F
:105DEA009067801B910B1AF48095909501968C3FD1
:105DFA008FE098078991999148F0905896958795E0
:105E0A009A938A938EE094E9B6D7B5C7801B910B13
:105E1A000297959587959F70906DADC74EDEA53216
:105E2A0064726F70229689919991089560D8A4320C
:105E3A00647570FF088119819A938A931A930A9359
:105E4A0008950ED9853273776170FC01A991B991D1
:105E5A008991999109911991BA93AA93FA93EA931C
:105E6A001A930A930895B6ED85737061636500E22B
:105E7A0036C70EEE86737061636573FF009719F07B
:105E8A00F6DF0197E9F704C0F0EFA464726F70FFC0
:105E9A0089919991089540D8A473776170FF8C0114
:105EAA00899199911A930A930895E0EAA470696313
:105EBA006BFF880FFE01E80FF71D819191910895FC
:105ECA00B6DEA46F766572FF9A938A938A819B8164
:105EDA000895B2F6B23E72FF8F939F93899199917A
:105EEA000895FEDEB2723EFF9A938A939F918F9134
:105EFA000895D0DFB27240FF9A938A93EDB7FEB746
:105F0A00828191810895B0D8A361627399231AF4AA
:105F1A00809590950196089554EAA12B09911991BB
:105F2A00800F911F08954AEE85616C69676E43DFA1
:105F3A0001968E7F90C79CEC86616363657074FFDF
:105F4A008C0188819981080F191F0F931F93CBD653
:105F5A00D10119978A30D9F0883051F08F3741F042
:105F6A008D30E1F48C93899199910F910F9195CC91
:105F7A007C928991999108811981081B190B39F32F
:105F8A000197C8D7030820080E94ED37E0CF89910E
:105F9A0099910C91002349F37C92D9CF082F9FD66F
:105FAA00A991B9918D93CD011F910F9108171907E6
:105FBA0061F673CCCCEEA3737040FE019A938A9378
:105FCA00CF010895DEEDD27322FFC9D31EEF7ABC4A
:105FDA0004D0E0CEA8ED822C22FF9A938A9382E223
:105FEA0065D1E9DE71DF02968E7F2DD76CC53EE35F
:105FFA00D465786974FFA4C6A6DA86776974686975
:10600A006EFF09911991A991B9910A171B0709F015
:10601A0010F4A817B907880B990B089570DDA23CF4
:10602A003EFF09911991801B910B089564E0A13DEF
:10603A0009911991801B910B0197880B990B08956F
:10604A0038E0813C09911991081B190B0BF4109542
:10605A00110F880B990B089516FA813E099119912F
:10606A00801B910B0BF49095990F880B990B08954F
:10607A0090E0A2753CFF0991199108171907880B3E
:10608A00990B089544E1A2753EFF09911991801771
:10609A009107880B990B089596E1A22170FFAC0134
:1060AA0089919991089568D688E591E064C608E0D7
:1060BA00E4D78FE493E95FD69A938A938FE593E9BD
:1060CA005AD602E010E45CC610E457D6E1CEE8DA0C
:1060DA00B421703E72FF4F935F93AC0189919991FD
:1060EA0008959ADDB3723E705F914F910895982B8F
:1060FA00899199910895F2D9A33E707299278032B5
:10610A0008F087FD8EE208952EE2A12D09911991DA
:10611A00081B190BC8010895C6DAA36E6970229686
:10612A000895D4EFA47475636BFF099119919A933A
:10613A008A931A930A93089534EEA27570FF9A937C
:10614A008A9382E090E008958CDB84686F6C64FF28
:10615A00082F89919991F101A191B1910E9383949C
:10616A00B293A293089528E0823C23FFF1DAF10169
:10617A008083918388248CCE16EDA564696769743F
:10618A008A3008F0895D805D08950ADC82233E002A
:10619A002296F101819191919A938A93882D08957B
:1061AA00AF93BF933DDD9F9110E39711192F8F9104
:1061BA00881981F120F4A81BBF4F880E04C01E93D2
:1061CA0083948A95E1F7A193B19324C026D9837564
:1061DA002E72DC0188279927C9DF729700810A305D
:1061EA00F9F203C0AF93DADCAF91A150D8F712C02D
:1061FA00D6DC847369676EFF97FF4ACE8DE2A8CF1B
:10620A008CFB82752EFF03D3B1DFFCDC0DE274FD3B
:10621A00A2DF7F7EBDDFDCD62ACE44FB8375642EE7
:10622A00F3CF58FC812E992372F77061809590956F
:10623A000196E9CF04F482642E0099232AF770614B
:10624A000E949F39E1CF0CDB88636F6E7374616EB5
:10625A0074FF7064E4D4E2D49A938A938EE692EE41
:10626A00C8D785C577FD0C944C3C089548DD893222
:10627A00636F6E7374616E7412DED1D4CFD4CED4D0
:10628A0076C528F78475736572FF7062C8D4C6D460
:10629A0067779A938A9388EA92EEABD768C5820D9C
:1062AA00931D0895ACFA857061727365F101389790
:1062BA00A191B1919A938A938191919101911191AE
:1062CA00A00FB11FBA93AA93801B910B8F939F9330
:1062DA000A8102DDEF93FF93249615DD009709F0FA
:1062EA0001971F900F90E019F109198208821F91F6
:1062FA000F91081B190BCF01F1013497A191B191AC
:10630A00A00FB11FB293A2930895000084776F7211
:10631A0064FFCCDFE991F99182938823CF01089534
:10632A00E8F186696D6D65643FFFD3D3982E80745A
:10633A000895BADD8466696E64FF9A938A93FC01B4
:10634A00019186E49AEF033030F08CE494EE053044
:10635A0010F086ED9AED77D059F78091C2029091AC
:10636A00C30271C086E3837469239A938A93F10105
:10637A003E97819191910896ABC386DAA3746962BC
:10638A009A938A93F101709781919191089568EB9C
:10639A00873E6E756D626572F1017297B080A62CA8
:1063AA008823B1F08F93899199918F939F9391D379
:1063BA008E3231F18A3318F0813628F087528053B1
:1063CA0010F08B1540F09F918F919A938A938F9139
:1063DA0099278A0D0895882EE991F991A991B99181
:1063EA00EB9DC001AB9D8001FB9D900DBB9D080DEF
:1063FA00101D811D971D1A930A93A72C9A938A93AD
:10640A009F918F9101969A938A938F918150C8CFC9
:10641A00F8EEC128DFD3290049DF6F7B03CD32D9DB
:10642A00A2322DFF0297089562FAA2626CFF9A9334
:10643A008A9380E290E008959A938A9380E269CFE2
:10644A00B2EE83286629A881B9810C010DD241F0E8
:10645A00F001329768940E94C23C0097A1F7089510
:10646A003196EE7FF058E883F983902E019796FCD7
:10647A00029608958091C7029BB580959095860DE6
:10648A00971D9BBD04D010E40DC08091C70208E09F
:10649A00F4D5982F92958F709F70089510E701C0D8
:1064AA0010E6F3DF8068812E982995FF906163D406
:1064BA009A938A938BB5EDDF806998295CC410E4BE
:1064CA00F0CF5AD404961BB5171193C602E0D5D55E
:1064DA0040968FC688960496449715D010E008E037
:1064EA0065FD0CE04BD4616084C680969A938A93CA
:1064FA00E6DF61607EC607D0E2DF64619A938A9321
:10650A008EEB99ED76C66F7D7CD30C97E1D28A39F2
:10651A0019F4933909F46062BBCCC1CC8091C702EB
:10652A009BB508E0AAC528D4A0E11FD21DC2F6DF98
:10653A009A938A93019663FDF6CFA0E916D203C017
:10654A00EDDF63FD07C0A0E810D29A938A938AE927
:10655A009EED4FC611D402E090D506C200008969AB
:10656A006E7465727072657409911991D1011897E8
:10657A000D931D938D939D93899199917D927D920F
:10658A005BDF09F485CCD9DE8991999109F47BC046
:10659A0012F477FD12C094FC77FD09C0BBD40C43FA
:1065AA004F4D50494C45204F4E4C59FFEDC2606447
:1065BA000E94813E66FD6274E3CF6E7E19ED8E3BCA
:1065CA00910711F4606155C067FF4DC0ECE0F6E633
:1065DA00ACE1059115918017910719F0AA95C9F7B1
:1065EA0042C0A73018F4C8D3049643C0AB3018F49D
:1065FA001BB51930C0F5F69605911591F801099564
:10660A0040C0B4D8C4D826DF16E1FAEE2CE03AE04E
:10661A0080E094E04EE066E092F4A8E0E0E02EDB51
:10662A0048DB7CDB64DB48FA66FA18FA36FAD4D817
:10663A0078D88ED8B6FC9AFC04FB533255323F32D6
:10664A0064326632643280326F3270327A32713238
:10665A00583069305C30AD34943476345F349C32CF
:10666A00A532653C693C6F7D19ED823B910709F4BF
:10667A00606295FE02C0BDD504C0A9DB6D7F94FCA3
:10668A00626067777DCF627C1CD0009771F077FFDC
:10669A0009C0082F8991999101FF02C000DCBED27E
:1066AA00BDD26ECF89919991ECCF677789919991F3
:1066BA009CD0F5D78DD45BC222EE876E756D62656C
:1066CA00723F9A938A937A927A927A927A92DC01B8
:1066DA008D9199270C910B5221F0023011F000276D
:1066EA0002C0019711960F93F1017297B0800C9135
:1066FA00035221F0023019F028F40B5F065FB02E26
:10670A0001971196BA93AA934ADE89919991A9F4AD
:10671A000197DFD18E52899199910F9131F4071126
:10672A0009D6B0D782E090E008958991999107112E
:10673A0006D788839983C30108950F9124968827E1
:10674A009927089583286329FF91EF919A938A9351
:10675A00EE0FFF1F85919591089583282C29FF91AB
:10676A00EF91F4DFF795E795EF93FF9330CB26F19E
:10677A00832E73740CE3B3D2F1017297108104E291
:10678A00103139F003E21A3021F00FE310F4105DF2
:10679A00012FA5D20CE2A3D29A938A93EAB5FF27D6
:1067AA00E05DF84A859195917AD78F7011D40EE3FE
:1067BA0096D2F9C3833E6470E9E0F0E0A4ECB2E05B
:1067CA00F999FECFF2BDE1BD6FBA00B51E9101176E
:1067DA0039F010BD0FB7F89414E01FBBF99A0FBF38
:1067EA00E15070F708958364703EE9E0F0E0A4ECAC
:1067FA00B2E0F999FECFF2BDE1BD6FBA10B51E93B2
:10680A00E150D0F708957EDDA566616C73659A93B1
:10681A008A938827992708952EE1A474727565FFD3
:10682A009A938A938FEF9FEF089540F5866C736869
:10683A00696674FFFC01899199913197AAF3880FCF
:10684A00991FFBCF1AF986727368696674FFFC0197
:10685A0089919991319742F396958795FBCFC0D844
:10686A00826E3DFFA991B991FC01F0589D918591E5
:10687A00082F8F708917B1F685911D91181791F617
:10688A009A95D1F7882708958ADD866469676974BD
:10689A003FFF8A3318F0813618F08752805308F484
:1068AA00B6CF9A938A93F10172979081891B880BCC
:1068BA00990B089508E0E1D363FF0AC008E0DDD32D
:1068CA00CD01049605D19F7090678F701FD053C277
:1068DA001DD080E893E24FD29A938A938AE99EED7B
:1068EA0088C408E0CAD363FF0AC08BD10497F0D0EA
:1068FA009F70906704E0C1D3A0E809D005C006D014
:10690A009A938A9380E893E2EFD7DFC7A0E0617F8A
:10691A009A938A938091C7029BB5E89427C0FEDDBB
:10692A0063FF0AC06ED10497D3D09F7090678F70AF
:10693A000FE08027902714C09A938A9388E093E205
:10694A009A938A9380E895E9E1DFCED70CD0FDCD02
:10695A00E5DD63FF21C055D10497BAD09F778F70C8
:10696A0008E08BD3D3DFC0D7A0E0689480369705C0
:10697A0060F4803250F08052982F8F70907F9295F9
:10698A00990F916B93F98A2BAFC79A938A938A2F9F
:10699A0091E991F9A9D7A8C79A938A9388E09BE2CB
:1069AA00B5DFE1DFD2CD72DE857369676E3FE881BC
:1069BA00F981082F9A938A9381918B5221F0823020
:1069CA0011F088270895EA83FB830A9508830895BE
:1069DA0004E086756D2F6D6F64FFDC0189919991D2
:1069EA00E0D01A920A920895D8E183752A2F8F93DC
:1069FA009F938991999184D5BF91AF919A938A93E4
:106A0A00CF01CFC0C6EB86752A2F6D6F64FFEFDF0B
:106A1A001A920A920895B4F585636D6F76654F935D
:106A2A005F9349915991DC018991999108C0AF937B
:106A3A00BF9335D6F5D7460D571DBF91AF91119724
:106A4A00B0F75F914F9124CA14E1812CB4D9029610
:106A5A00929382930297F3C732FA82632CFFABD9DF
:106A6A000196929382930197F9C724E1836E3E635C
:106A7A00DDD78F70E80FF71D3196EE7FCF010895AD
:106A8A00A4F683633E6E0EEF8CD10E5F87FF21F072
:106A9A009F3758F4903248F08F3739F050F48032EB
:106AAA0020F0899199910E3079F7229687E09927FB
:106ABA0008958F70D1F38E7F8017B9F7E9C934DA58
:106ACA0085706C616365B6D9C9D70196E8D9A7CF35
:106ADA009EC7ACC76EF68471756974FFF1017A9727
:106AEA00A191B1910FB7F894ADBFBEBF0FBF7F7729
:106AFA0004E00ABD7ADEF1017C97A191B191AC174D
:106B0A00BD0728F0A191B191AC17BD0720F002D2C0
:106B1A000353503F39C0E2D033DC9A938A9325DC81
:106B2A000A970EDAA4D920DD77FDE5CFE8D544DE51
:106B3A00F1D103206F6B4CD206D0DCCFDAF186702C
:106B4A00726F6D7074FF3BD50A09ACF18561626F93
:106B5A007274F1017C97C191D191C0CF2CF5873F16
:106B6A0061626F72743F009789919991C9F47FD9D4
:106B7A000FE3B5D0EECF1CEC863F61626F7274FFF3
:106B8A000A811B81012B19F472D922D2E2CF1AC2CF
:106B9A0042DFD661626F727422FF17DAE0DD8AEB98
:106BAA000895009731F0F2D7FC0189919991689480
:106BBA00F0C7FC0189919991E9C7DCE98675642FD0
:106BCA006D6F64FF0ADF9A938A93CF01089596FC4A
:106BDA00836C6974FF91EF91B9DDF795E795099494
:106BEA001CE4812729DCA9DBBECF64F384636861D6
:106BFA0072FF1DDC5BDB4CD919C772F2A5696865A7
:106C0A0072659A938A938091BC029091BD0208950D
:106C1A009CEBD65B636861725DFFEBDF38C60CDC08
:106C2A008CDB69F0882799277F7974D10F414C5200
:106C3A004541445920444546494E4544A1DFE8812F
:106C4A00F9818081882311F0803108F08CDF8091EE
:106C5A00C2029091C30248D622D567DAE091BC02FB
:106C6A00F091BD02F093C302E093C2023196FA9307
:106C7A00EA939A938A938068072F0076802B7F790C
:106C8A003197E894E0D6CBDE02968E7FEE27DCC001
:106C9A0094E886637265617465FFC1DF9A938A938B
:106CAA0089EA93E3ADD887D80AB5002309F4029696
:106CBA001BC62CDDD8706F7374706F6E65FFBCDBFA
:106CCA003CDB09F450DF9923899199911AF447DD45
:106CDA0068E751C07CC882F3826372FF0DE09A9321
:106CEA008A93802FF2C7FBC78728646F65733E2992
:106CFA009A938A938091C2029091C302B9DE029656
:106D0A00FC019F918F9168949EC610F7D5646F65B8
:106D1A00733E25DDFAEC23DD54F50895A4E0A15D68
:106D2A007068089546ED813A706879CF9AE3873A98
:106D3A006E6F6E616D6565DFF3CF4CE0D13B7F7797
:106D4A0061FD15C05EDF2DD08C01107F105D41F012
:106D5A008991999126D094398E4039F48CE001C0FA
:106D6A009F7EE991F99168946EC6229602C09A9321
:106D7A008A9388E095E9B8C510E008E07ED1025010
:106D8A0040DF800F971D43D68F71812B9A938A9388
:106D9A0034973ED68F71812BA7D5A6C584D7822D6D
:106DAA0040FF02979A938A9332C69ED8A57374615C
:106DBA0074659A938A93C30177FF8827089536E802
:106DCA00A66C6174657374FF9A938A9382EC92E05D
:106DDA000895E6F5A27330FF9A938A93C1014C97FE
:106DEA000895EEDEA27230FF9A938A93C1014A9700
:106DFA00089554FBA57469636B739A938A93C701C8
:106E0A00089510EAA67469636B733DFF8C01C7018C
:106E1A00801B910B0895EEF5A77469636B733E6E40
:106E2A0087011A930A9308950000827573FF0197E8
:106E3A0019F0F8DA0296FBCF8991999108956AF1CF
:106E4A0085616C6C6F74EAB5FF27E454FD4F0191BC
:106E5A001191800F911F929382931AC85CF8823223
:106E6A0040FFD5D59A938A93D3C5C0DF83736862EE
:106E7A00182FE091C202F091C302D9D53197812B24
:106E8A00E894E1C568E589696D6D65646961746551
:106E9A0010E49A938A93EDCF90F887696E6C696EC5
:106EAA00656410E2F6CF7AE7832E6964F8D38F70AF
:106EBA008FC01AD9823221FF38D90296C0D5BFC5F0
:106ECA0070E3A3737172889FC0010895A2DE847370
:106EDA00717274FF8C01882790E88927889F0015B2
:106EEA00110508F489279695C1F7089524DFA12A88
:106EFA0009911991FC010E9FC0011E9F900D0F9FD1
:106F0A00900D0895FC010E9FC0010F9F900D0895EA
:106F1A0083287322FF91EF91EE0FFF1F05919A9339
:106F2A008A93CF0190589A938A93802FE00FF71D86
:106F3A003196F695E795099484F185776F726473B3
:106F4A00CDDE7ADA09F478609A938A9386E49AEF26
:106F5A000DD08CE494EE0AD086ED9AED07D080919C
:106F6A00C2029091C30202D0777F4AC173FD0FC05B
:106F7A00FC01F058A881B9810D9115911F70101765
:106F8A0050F00D901590011431F40A95D1F79A93A7
:106F9A008A938CDF41D902973AD5009739F79ECE6A
:106FAA00C8D9822E73FF38D99A938A9306D814DFE8
:106FBA002ED50297088119810817190718F4F1DEEE
:106FCA0022D9F8CF249644C588D88474797065FF8D
:106FDA00882E89919991882021F061D376D68A9456
:106FEA00E1F736C532F18464756D70FF04E0969559
:106FFA0087950A95E1F7F1017297A081A03108F40B
:10700A007860DC0189919991AF93BF9367DE9A9377
:10701A008A939A938A93992784E073FD8395D9D8A2
:10702A00AFE0AF933CD39A938A93992782E073FD9A
:10703A008395CFD8AF91A150A0F7409700E1802E59
:10704A002ED35CD842D68A94D9F7BF91AF911197C3
:10705A00D8F6777F8DE039C6842C3F303DFF9A936E
:10706A008A9365FD03C088EF90EEC3C004E005D0A3
:10707A0080E097E96F7D38C406E0ECEBF2E0A1917D
:10708A00B191A01BB709B293A29308959A938A93D8
:10709A0089E094EF64FD9B7F27C4CEF5D26966FF31
:1070AA0007D06A7EAEDD9A938A9380E090EC1CC486
:1070BA0060FD1FC065FD62FF18C09A938A9389E03C
:1070CA0090EF9FDD0A97A3D49F7090639A938A9357
:1070DA0081E194EF9A938A939BD49F7090630EE018
:1070EA00CCDF02D401D400D4FFC364FDC5DFB7DF0F
:1070FA00CDCF65FF07C09A938A9388E090EF04E0AA
:10710A00BCDFF2C304E0B9DF9A938A938CE191EF72
:10711A0070C08991999108F0089558DDD330696655
:10712A006061B4DFBFCFCEFCD4656C7365FFBADF94
:10713A00F4D904C024E8D47468656EFF0EEF1FEF1B
:10714A00FC018091BC029091BD028E1B9F0B800FA7
:10715A00911F959587959F70906C626004CEC4D7F5
:10716A00D5626567696E4DCDA2F5D5756E74696C89
:10717A0062609EDF6A7E18C0FCFAD630756E74694A
:10718A006CFFA62D62600091BC02801B82508E7F2C
:10719A009070880F991F880F991F8A2B946FA4C328
:1071AA0032DFD5616761696E62600091BC0210913D
:1071BA00BD02801B910B0297959587959F70906CE5
:1071CA0093C344EFD57768696C656ADFA6C950E84E
:1071DA00D6726570656174FFE7DFB0CFE0D8D66913
:1071EA006E6C696E65FF6E7CFDDC03C0E4FC83692E
:1071FA006E2C5CD215E98830910711F075D3F9CF5E
:10720A00229626C474FBD3666F729A938A9386E396
:10721A0092EF67FF04C0677710EAAFDD0696E9DFF1
:10722A00F0DC04979A938A9302970895DC01899176
:10723A00999100C0AF93BF930895A6DDD2646FFF02
:10724A009A938A938AE592EFD4DFDBDC0897089554
:10725A00DC01899199918C01899199910F931F93DE
:10726A00AF93BF930895AAF4D56C656176659A9336
:10727A008A9384E992EFBDDFF39AEAEBF2E0A28106
:10728A00B3811297B787A68708950F910F910F912F
:10729A000F9100C0089542DBD46C6F6F70FF9A9310
:1072AA008A938CEC92EFA5DFF39B7ECFF3989A93A7
:1072BA008A938091C8029091C90200E010E040DFF1
:1072CA0073CFBF91AF911F910F9111960A171B07A8
:1072DA0008F00895F2F2A1699A938A93EDB7FEB77E
:1072EA008281918108957CD7A16A9A938A93EDB796
:1072FA00FEB7868195810895CCDED46E657874FFD9
:10730A0002E010E01DDF9A938A938AE293EF71DF1D
:10731A000091BC021091BD02801B910B02974CCFC9
:10732A00BF91AF91119708F00895FAFC87646E65D2
:10733A0067617465099119910619170987099709EF
:10734A0042C052E2883F646E6567617465FF990FB7
:10735A008991999178F3089594DE8464616273FF48
:10736A0097FDE8CF089592D9826D2BFF8C01990F72
:10737A00880B990B05C0A2F382642BFF099119911E
:10738A00E991F991A991B9910A0F1B1F8E1F9F1FAD
:10739A001A930A93089540E282642DFF0991199184
:1073AA00FC0189919991A991B991A01BB10B8E0BFE
:1073BA009F0BBA93AA93089536F3A764696E76650C
:1073CA0072740991199100951095809590951A9368
:1073DA000A93089556D9A364303D09911991892BCE
:1073EA00802B812B0197880B990B08951AF48264DC
:1073FA003DFFD4DF019707C0F8F382643CFFCEDF7C
:10740A000BF49095990F880B990B2296089512D830
:10741A0082643EFFC3DFB9F3ABF39BF700008666D5
:10742A006F72676574FF08D8CFDCF1D20CD89BDB8A
:10743A002ADB02979A938A93EAD295DB9093BD024C
:10744A008093BC02E4D2C0DCFAC228F4866D617271
:10745A006B6572FF7ABC21DCBDDB0009D2DB0ED082
:10746A00D0DB0A969093BD028093BC0204E00ABD69
:10747A0041DC6BD09A938A938AEB92E0ABDB0A00E9
:10748A00CECADEDEA23E61FF5C0189919991089520
:10749A0034E4A2613EFF9A938A93C5010895B6F433
:1074AA00A56C6F61642B716008955EDBA56C6F61DA
:1074BA00642D7E7F2D980895A2F2A46C6F6164FFFB
:1074CA009A938A938091C6029927089506EE201608
:1074DA00B1F40FB7F8940090B8021090B9020128DD
:1074EA000FBF69F470FD2D9863BE7092810008EB9E
:1074FA0072FD0093C100889573BE70FD2D9A0895A0
:10750A0009911991809FD001919FF001909FB00D30
:10751A00E11DF71D819FB00DE11DF71DCD010895F5
:10752A00B4D7873F6E6567617465990F89919991A0
:10753A0030F0089548EBA66E6567617465FF809523
:10754A0090950196089583286429BF91AF91FF9180
:10755A00EF91FCD8FD0109940091C6000F3009F49F
:10756A004AC4E4EBF2E0A481B581B13060F411962B
:10757A00B583A483A081B1810D93B23008F0B1E044
:10758A00B183A08303C4FCE743D000C412DFD35BFA
:10759A00275D28DB7CC1CEF18576616C75657DDB64
:1075AA0055DAA6DBD2DF33C284E18564656665728B
:1075BA0074DB9A938A938CE59BEE48DA99DBC5DFF4
:1075CA00A5C372F3C26973FF0DDB049620D277FF5D
:1075DA0036C25DD1C4D848FA08950CE2C2746FFF6E
:1075EA00F3CF4EF3877475726E6B65790E94D73A42
:1075FA00BA02F4E983747830746056D29091C0006C
:10760A0095FFFACF8093C600899199917B7F08955F
:10761A00E091C000E5FFFCCFF093C600089542DA7E
:10762A008372783041D2E4EBF2E00FB7F894A48188
:10763A00B581119720F40FBF70FF2D98F3CFB58352
:10764A00A483A281B3819A938A938D919927B230A8
:10765A00A70509F4B1E0B383A2830FBF70FF2D9A87
:10766A00089500DD847278303FFF9A938A930FB7AA
:10767A00F8948091B8029091B9020FBF089592D7F9
:10768A0083726F74A991B99109911991BA93AA93C6
:10769A009A938A93C8010895D4DD8363402BC6D197
:1076AA00FA93EA9308956CDA82402BFFB0D1FA93E9
:1076BA00EA930895DCF68377642BF894A89587708B
:1076CA00886098E190936000809360007894C0C1CC
:1076DA00D6D98377642DF894A89574BE08E10093EF
:1076EA00600070926000789408956ED9A3637764FD
:1076FA00A89508952CE38669666C757368FFF199FD
:10770A0032C3089522DA85656D70747963DA48D7D1
:10771A0061DA00095FDA0C0082D967C816E3847758
:10772A0061726DFFDD2704B6D4BF1FB6F894A2E0DC
:10773A00B0E0DD93AA31E9F700916600ACE17D92F1
:10774A00B930E9F700936600DA94C4E6D3E006E2BA
:10775A0013E00DBF1EBF6394BEDF06EE12E01801F0
:10776A0039DA36D737DACA0235DA140058D9E0E0FE
:10777A00F9E0689425D1019609F4C8DF65BEF2E004
:10778A00F5BFF4BD03E005BD09EF07BDF0936E0038
:10779A000FEF1FE41093890000938800F0936F00A5
:1077AA0001EB1AE31093A5020093A40200E10093EF
:1077BA00C400F093C00008E90093C10006E00093FA
:1077CA00C20011E01093B5021093B7020ED8789454
:1077DA0000E202FC02E403FC07E501FC05E400FC0C
:1077EA0000E516FC0DE47BDA1ED0259A2D98F9994E
:1077FA00FECFF3010FEE002E19E032D3F7DE009729
:10780A0071F088DB0673746172743F00E1DB80ED0E
:10781A0097E03DD16AD2009711F4E8DE6DD299C99A
:10782A00C0F68376657276DB25204F707469466FE1
:10783A0072746820352E32202041546D6567613399
:10784A0032382030352E31322E323032300DC0CB24
:10785A0072E1C23B69FFBED90C9446D0BBD9CB3E7C
:10786A007F7742C0EEFC84696E7421FF8150880FD5
:10787A00E0E8F2E0E80FF71D899199919058969502
:10788A008795E4C0C4E6C76C69746572616C9A93A3
:10789A008A9382EB99EDADDC67FD686060686E786B
:1078AA008093C7029BBD9A938A93982F10E802D0BF
:1078BA00892F10E992958F709F70812B906E14C05A
:1078CA0007D00196A0E929C803D080E990EE0CC040
:1078DA0004E0D3DB8091C7029BB59A938A93A0E810
:1078EA001CC8A6F082692CFF689402E0ACEBB2E0F7
:1078FA00ED91FD91E00FF71DFE93EE93E01BF70962
:10790A006FC0F8F18369632CE89401E0EFCF7EDE63
:10791A0086736F75726365FF9A938A93F10138973C
:10792A00819191919A938A9381919191089538EDD9
:10793A00872F737472696E67DC0189919991099135
:10794A0019918A1B9B0B0A0F1B1F1A930A930895FE
:10795A00C4F387646563696D616C0AE0F10172972B
:10796A000193719208950EF98368657800E1F6CF64
:10797A008CEA8362696E02E0F1CFF058FD110EC005
:10798A000E2F00780C1551F4AE2FAF77B2E08D911F
:10799A0016F49D9131963196F058089585910EF41A
:1079AA009591F0580895BBD1F2E0E091C402EF77C7
:1079BA0081930EF49193F19A4BC06894F038E8F6EB
:1079CA00F999FECFF950F2BDE1BD6FBA80B52EF438
:1079DA003196F2BDE1BD6FBA90B53196F75F089561
:1079EA00F29996C1F038F8F6F950F999FECFF2BD3E
:1079FA00E1BD80BD0FB7F89484E08FBBF99A0FBF41
:107A0A003EF53196892FE894F0CFE0F28140FC01EF
:107A1A00F93098F68191919108956CFA83706321F7
:107A2A00E894FA0110C0E2EC826340FFFC01992756
:107A3A00E894F93018F681910895A4DB81216894BD
:107A4A00FC0189919991F93058F60EF4918380835B
:107A5A0089919991089564EA826321FFE894F0CFAD
:107A6A000EDA837063409A938A93FA01E0CFEEEDBF
:107A7A00827040FF9A938A93FA01CACFBADA827067
:107A8A0021FF6894FA01DFCF6AE8826D73FF8701EC
:107A9A00800F911F09D0870108171907D9F7D8CF86
:107AAA00CAEA85706175736571FD10DDA895F101EB
:107ABA003C97A191B191A215B305C9F01FB7F894EB
:107ACA00DF93CF939F938F935F934F93F1010EB7F9
:107ADA0002930DB702931D010E910EBF0E910DBFB9
:107AEA004F915F918F919F91CF91DF911FBF089521
:107AFA0082EB86313032342A2FFF0991199102DD47
:107B0A00F695E7959795F695E7959795892F9E2F80
:107B1A00871D971D089526E28375642A8C01899131
:107B2A009991F0DC5C0189919991ECDC9A938A93A2
:107B3A00CF018A0D9B1D08952CF883756D2AE0DC10
:107B4A009A938A93CF0108952ED885752F6D6F6405
:107B5A001AD01A920A92089576EA836D6F6413D046
:107B6A00C00108956894DECD72F983676364DC010D
:107B7A00899199910BD0CD01D0011028D9F7089598
:107B8A007CE082752FFFDC018991999100241124F0
:107B9A00E89408E0BB2369F5AA2321F39EF0992310
:107BAA0089F48A1710F121F4C30108950A9549F05E
:107BBA00880F001C10F00A16C8F30A1A83950A9552
:107BCA00B9F70895880F991F001C10F00A1610F0D3
:107BDA000A1A8395880F991F001C10F00A1610F0D4
:107BEA000A1A83950A9571F708950C01882799272F
:107BFA0008959EF08A179B07C0F3B1F2092E9927C0
:107C0A00880F001C111C18F00A161B0618F00A1A15
:107C1A001B0A83950A95A1F70895880F991F001CDE
:107C2A00111C18F00A161B0618F00A1A1B0A83956B
:107C3A00880F991F001C111C18F00A161B0618F051
:107C4A000A1A1B0A83950A9541F7089530ED812F88
:107C5A00DC01899199910B2F09270F9397FD6FDC0E
:107C6A00BB231AF4A095B095119690DF0F9107FDEA
:107C7A0066CC0895E0DF822B21FFC9DE3297099195
:107C8A001991800F911F6894DECEA0D9836D617817
:107C9A0009911991F801F927F80112F0E81BF90B7B
:107CAA00F7FFC801089564FB836D696E0991199104
:107CBA00FC01F127FC0112F0E01BF10BF7FFC801F0
:107CCA000895FADF84656D6974FF08E1D101A01B8C
:107CDA00B709ED91FD9113C0DAEB836B657906E183
:107CEA00F5CFC4F4846B65793FFF04E1EFCFA4EECE
:107CFA008765786563757465FC0189919991F05877
:107D0A00F695E795099498F58340657880DEF4CF77
:107D1A004AD900D90341443F5BD90C94AE35F05897
:107D2A00E093C402F093C502EA3217E5F10780F73F
:107D3A00E078EC15FD0509F40895F19914D0009145
:107D4A00C4020078C02ED090C5020FEFF601A0E061
:107D5A00B2E015911D930123A038D9F7F0980F3F8F
:107D6A0009F4F09A0895F999FECF4F93A0E0B2E092
:107D7A0032D14F91A0E0B2E005901D900110D2CC13
:107D8A00A038D1F7F198DD24DA9408951F910F9164
:107D9A00FF91EF913FBFD2011895E39413F049F494
:107DAA00F3942093C60228E22093850070928400FF
:107DBA0022273FBF189539E0309381003FB7EDCFB6
:107DCA002D01A9E0A0938100A32F3FB7EF93FF9362
:107DDA000F931F93B2E0ED91FD910994FFFFFFFF0E
:107DEA0023953FBF189539E03093810038E93093E5
:067DFA00C10018959ACCAF
:00000001FF
